{
  "contractName": "Course",
  "abi": [
    {
      "inputs": [],
      "stateMutability": "nonpayable",
      "type": "constructor"
    },
    {
      "anonymous": false,
      "inputs": [
        {
          "indexed": true,
          "internalType": "address",
          "name": "owner",
          "type": "address"
        },
        {
          "indexed": true,
          "internalType": "address",
          "name": "approved",
          "type": "address"
        },
        {
          "indexed": true,
          "internalType": "uint256",
          "name": "tokenId",
          "type": "uint256"
        }
      ],
      "name": "Approval",
      "type": "event"
    },
    {
      "anonymous": false,
      "inputs": [
        {
          "indexed": true,
          "internalType": "address",
          "name": "owner",
          "type": "address"
        },
        {
          "indexed": true,
          "internalType": "address",
          "name": "operator",
          "type": "address"
        },
        {
          "indexed": false,
          "internalType": "bool",
          "name": "approved",
          "type": "bool"
        }
      ],
      "name": "ApprovalForAll",
      "type": "event"
    },
    {
      "anonymous": false,
      "inputs": [
        {
          "indexed": true,
          "internalType": "bytes32",
          "name": "role",
          "type": "bytes32"
        },
        {
          "indexed": true,
          "internalType": "bytes32",
          "name": "previousAdminRole",
          "type": "bytes32"
        },
        {
          "indexed": true,
          "internalType": "bytes32",
          "name": "newAdminRole",
          "type": "bytes32"
        }
      ],
      "name": "RoleAdminChanged",
      "type": "event"
    },
    {
      "anonymous": false,
      "inputs": [
        {
          "indexed": true,
          "internalType": "bytes32",
          "name": "role",
          "type": "bytes32"
        },
        {
          "indexed": true,
          "internalType": "address",
          "name": "account",
          "type": "address"
        },
        {
          "indexed": true,
          "internalType": "address",
          "name": "sender",
          "type": "address"
        }
      ],
      "name": "RoleGranted",
      "type": "event"
    },
    {
      "anonymous": false,
      "inputs": [
        {
          "indexed": true,
          "internalType": "bytes32",
          "name": "role",
          "type": "bytes32"
        },
        {
          "indexed": true,
          "internalType": "address",
          "name": "account",
          "type": "address"
        },
        {
          "indexed": true,
          "internalType": "address",
          "name": "sender",
          "type": "address"
        }
      ],
      "name": "RoleRevoked",
      "type": "event"
    },
    {
      "anonymous": false,
      "inputs": [
        {
          "indexed": true,
          "internalType": "address",
          "name": "from",
          "type": "address"
        },
        {
          "indexed": true,
          "internalType": "address",
          "name": "to",
          "type": "address"
        },
        {
          "indexed": true,
          "internalType": "uint256",
          "name": "tokenId",
          "type": "uint256"
        }
      ],
      "name": "Transfer",
      "type": "event"
    },
    {
      "inputs": [],
      "name": "DEFAULT_ADMIN_ROLE",
      "outputs": [
        {
          "internalType": "bytes32",
          "name": "",
          "type": "bytes32"
        }
      ],
      "stateMutability": "view",
      "type": "function",
      "constant": true
    },
    {
      "inputs": [],
      "name": "DEPARTMENT_ROLE",
      "outputs": [
        {
          "internalType": "bytes32",
          "name": "",
          "type": "bytes32"
        }
      ],
      "stateMutability": "view",
      "type": "function",
      "constant": true
    },
    {
      "inputs": [],
      "name": "FACULTY_ROLE",
      "outputs": [
        {
          "internalType": "bytes32",
          "name": "",
          "type": "bytes32"
        }
      ],
      "stateMutability": "view",
      "type": "function",
      "constant": true
    },
    {
      "inputs": [],
      "name": "GRADUATED_ROLE",
      "outputs": [
        {
          "internalType": "bytes32",
          "name": "",
          "type": "bytes32"
        }
      ],
      "stateMutability": "view",
      "type": "function",
      "constant": true
    },
    {
      "inputs": [],
      "name": "INSTRUCTOR_ROLE",
      "outputs": [
        {
          "internalType": "bytes32",
          "name": "",
          "type": "bytes32"
        }
      ],
      "stateMutability": "view",
      "type": "function",
      "constant": true
    },
    {
      "inputs": [],
      "name": "RECTOR_ROLE",
      "outputs": [
        {
          "internalType": "bytes32",
          "name": "",
          "type": "bytes32"
        }
      ],
      "stateMutability": "view",
      "type": "function",
      "constant": true
    },
    {
      "inputs": [],
      "name": "STUDENT_ROLE",
      "outputs": [
        {
          "internalType": "bytes32",
          "name": "",
          "type": "bytes32"
        }
      ],
      "stateMutability": "view",
      "type": "function",
      "constant": true
    },
    {
      "inputs": [
        {
          "internalType": "address",
          "name": "to",
          "type": "address"
        },
        {
          "internalType": "uint256",
          "name": "tokenId",
          "type": "uint256"
        }
      ],
      "name": "approve",
      "outputs": [],
      "stateMutability": "nonpayable",
      "type": "function"
    },
    {
      "inputs": [
        {
          "internalType": "address",
          "name": "owner",
          "type": "address"
        }
      ],
      "name": "balanceOf",
      "outputs": [
        {
          "internalType": "uint256",
          "name": "",
          "type": "uint256"
        }
      ],
      "stateMutability": "view",
      "type": "function",
      "constant": true
    },
    {
      "inputs": [
        {
          "internalType": "uint256",
          "name": "tokenId",
          "type": "uint256"
        }
      ],
      "name": "getApproved",
      "outputs": [
        {
          "internalType": "address",
          "name": "",
          "type": "address"
        }
      ],
      "stateMutability": "view",
      "type": "function",
      "constant": true
    },
    {
      "inputs": [
        {
          "internalType": "bytes32",
          "name": "role",
          "type": "bytes32"
        }
      ],
      "name": "getRoleAdmin",
      "outputs": [
        {
          "internalType": "bytes32",
          "name": "",
          "type": "bytes32"
        }
      ],
      "stateMutability": "view",
      "type": "function",
      "constant": true
    },
    {
      "inputs": [
        {
          "internalType": "bytes32",
          "name": "role",
          "type": "bytes32"
        },
        {
          "internalType": "uint256",
          "name": "index",
          "type": "uint256"
        }
      ],
      "name": "getRoleMember",
      "outputs": [
        {
          "internalType": "address",
          "name": "",
          "type": "address"
        }
      ],
      "stateMutability": "view",
      "type": "function",
      "constant": true
    },
    {
      "inputs": [
        {
          "internalType": "bytes32",
          "name": "role",
          "type": "bytes32"
        }
      ],
      "name": "getRoleMemberCount",
      "outputs": [
        {
          "internalType": "uint256",
          "name": "",
          "type": "uint256"
        }
      ],
      "stateMutability": "view",
      "type": "function",
      "constant": true
    },
    {
      "inputs": [
        {
          "internalType": "address",
          "name": "account",
          "type": "address"
        }
      ],
      "name": "grantGraduatedRole",
      "outputs": [],
      "stateMutability": "nonpayable",
      "type": "function"
    },
    {
      "inputs": [
        {
          "internalType": "address",
          "name": "account",
          "type": "address"
        }
      ],
      "name": "grantInstructorRole",
      "outputs": [],
      "stateMutability": "nonpayable",
      "type": "function"
    },
    {
      "inputs": [
        {
          "internalType": "address",
          "name": "account",
          "type": "address"
        }
      ],
      "name": "grantRectorRole",
      "outputs": [],
      "stateMutability": "nonpayable",
      "type": "function"
    },
    {
      "inputs": [
        {
          "internalType": "bytes32",
          "name": "role",
          "type": "bytes32"
        },
        {
          "internalType": "address",
          "name": "account",
          "type": "address"
        }
      ],
      "name": "grantRole",
      "outputs": [],
      "stateMutability": "nonpayable",
      "type": "function"
    },
    {
      "inputs": [
        {
          "internalType": "address",
          "name": "account",
          "type": "address"
        }
      ],
      "name": "grantStudentRole",
      "outputs": [],
      "stateMutability": "nonpayable",
      "type": "function"
    },
    {
      "inputs": [
        {
          "internalType": "address",
          "name": "account",
          "type": "address"
        }
      ],
      "name": "hasDepartmentRole",
      "outputs": [
        {
          "internalType": "bool",
          "name": "",
          "type": "bool"
        }
      ],
      "stateMutability": "view",
      "type": "function",
      "constant": true
    },
    {
      "inputs": [
        {
          "internalType": "address",
          "name": "account",
          "type": "address"
        }
      ],
      "name": "hasFacultyRole",
      "outputs": [
        {
          "internalType": "bool",
          "name": "",
          "type": "bool"
        }
      ],
      "stateMutability": "view",
      "type": "function",
      "constant": true
    },
    {
      "inputs": [
        {
          "internalType": "address",
          "name": "account",
          "type": "address"
        }
      ],
      "name": "hasGraduatedRole",
      "outputs": [
        {
          "internalType": "bool",
          "name": "",
          "type": "bool"
        }
      ],
      "stateMutability": "view",
      "type": "function",
      "constant": true
    },
    {
      "inputs": [
        {
          "internalType": "address",
          "name": "account",
          "type": "address"
        }
      ],
      "name": "hasInstructorRole",
      "outputs": [
        {
          "internalType": "bool",
          "name": "",
          "type": "bool"
        }
      ],
      "stateMutability": "view",
      "type": "function",
      "constant": true
    },
    {
      "inputs": [
        {
          "internalType": "address",
          "name": "account",
          "type": "address"
        }
      ],
      "name": "hasRectorRole",
      "outputs": [
        {
          "internalType": "bool",
          "name": "",
          "type": "bool"
        }
      ],
      "stateMutability": "view",
      "type": "function",
      "constant": true
    },
    {
      "inputs": [
        {
          "internalType": "bytes32",
          "name": "role",
          "type": "bytes32"
        },
        {
          "internalType": "address",
          "name": "account",
          "type": "address"
        }
      ],
      "name": "hasRole",
      "outputs": [
        {
          "internalType": "bool",
          "name": "",
          "type": "bool"
        }
      ],
      "stateMutability": "view",
      "type": "function",
      "constant": true
    },
    {
      "inputs": [
        {
          "internalType": "address",
          "name": "account",
          "type": "address"
        }
      ],
      "name": "hasStudentRole",
      "outputs": [
        {
          "internalType": "bool",
          "name": "",
          "type": "bool"
        }
      ],
      "stateMutability": "view",
      "type": "function",
      "constant": true
    },
    {
      "inputs": [
        {
          "internalType": "address",
          "name": "owner",
          "type": "address"
        },
        {
          "internalType": "address",
          "name": "operator",
          "type": "address"
        }
      ],
      "name": "isApprovedForAll",
      "outputs": [
        {
          "internalType": "bool",
          "name": "",
          "type": "bool"
        }
      ],
      "stateMutability": "view",
      "type": "function",
      "constant": true
    },
    {
      "inputs": [],
      "name": "name",
      "outputs": [
        {
          "internalType": "string",
          "name": "",
          "type": "string"
        }
      ],
      "stateMutability": "view",
      "type": "function",
      "constant": true
    },
    {
      "inputs": [
        {
          "internalType": "uint256",
          "name": "tokenId",
          "type": "uint256"
        }
      ],
      "name": "ownerOf",
      "outputs": [
        {
          "internalType": "address",
          "name": "",
          "type": "address"
        }
      ],
      "stateMutability": "view",
      "type": "function",
      "constant": true
    },
    {
      "inputs": [
        {
          "internalType": "bytes32",
          "name": "role",
          "type": "bytes32"
        },
        {
          "internalType": "address",
          "name": "account",
          "type": "address"
        }
      ],
      "name": "renounceRole",
      "outputs": [],
      "stateMutability": "nonpayable",
      "type": "function"
    },
    {
      "inputs": [
        {
          "internalType": "address",
          "name": "account",
          "type": "address"
        }
      ],
      "name": "revokeInstructorRole",
      "outputs": [],
      "stateMutability": "nonpayable",
      "type": "function"
    },
    {
      "inputs": [
        {
          "internalType": "bytes32",
          "name": "role",
          "type": "bytes32"
        },
        {
          "internalType": "address",
          "name": "account",
          "type": "address"
        }
      ],
      "name": "revokeRole",
      "outputs": [],
      "stateMutability": "nonpayable",
      "type": "function"
    },
    {
      "inputs": [
        {
          "internalType": "address",
          "name": "account",
          "type": "address"
        }
      ],
      "name": "revokeStudentRole",
      "outputs": [],
      "stateMutability": "nonpayable",
      "type": "function"
    },
    {
      "inputs": [
        {
          "internalType": "address",
          "name": "operator",
          "type": "address"
        },
        {
          "internalType": "bool",
          "name": "approved",
          "type": "bool"
        }
      ],
      "name": "setApprovalForAll",
      "outputs": [],
      "stateMutability": "nonpayable",
      "type": "function"
    },
    {
      "inputs": [],
      "name": "symbol",
      "outputs": [
        {
          "internalType": "string",
          "name": "",
          "type": "string"
        }
      ],
      "stateMutability": "view",
      "type": "function",
      "constant": true
    },
    {
      "inputs": [
        {
          "internalType": "uint256",
          "name": "tokenId",
          "type": "uint256"
        }
      ],
      "name": "tokenURI",
      "outputs": [
        {
          "internalType": "string",
          "name": "",
          "type": "string"
        }
      ],
      "stateMutability": "view",
      "type": "function",
      "constant": true
    },
    {
      "inputs": [
        {
          "internalType": "string",
          "name": "_courseLink",
          "type": "string"
        },
        {
          "internalType": "address",
          "name": "instructorAddress",
          "type": "address"
        }
      ],
      "name": "mint",
      "outputs": [],
      "stateMutability": "nonpayable",
      "type": "function"
    },
    {
      "inputs": [],
      "name": "getCourseLinks",
      "outputs": [
        {
          "internalType": "string[]",
          "name": "courseLinks",
          "type": "string[]"
        }
      ],
      "stateMutability": "view",
      "type": "function",
      "constant": true
    },
    {
      "inputs": [
        {
          "internalType": "address",
          "name": "instructorAddress",
          "type": "address"
        }
      ],
      "name": "getGivesCourses",
      "outputs": [
        {
          "internalType": "uint256[]",
          "name": "givesCourses",
          "type": "uint256[]"
        }
      ],
      "stateMutability": "view",
      "type": "function",
      "constant": true
    },
    {
      "inputs": [
        {
          "internalType": "address",
          "name": "from",
          "type": "address"
        },
        {
          "internalType": "address",
          "name": "to",
          "type": "address"
        },
        {
          "internalType": "uint256",
          "name": "tokenId",
          "type": "uint256"
        }
      ],
      "name": "transferFrom",
      "outputs": [],
      "stateMutability": "nonpayable",
      "type": "function"
    },
    {
      "inputs": [
        {
          "internalType": "address",
          "name": "from",
          "type": "address"
        },
        {
          "internalType": "address",
          "name": "to",
          "type": "address"
        },
        {
          "internalType": "uint256",
          "name": "tokenId",
          "type": "uint256"
        }
      ],
      "name": "safeTransferFrom",
      "outputs": [],
      "stateMutability": "nonpayable",
      "type": "function"
    },
    {
      "inputs": [
        {
          "internalType": "address",
          "name": "from",
          "type": "address"
        },
        {
          "internalType": "address",
          "name": "to",
          "type": "address"
        },
        {
          "internalType": "uint256",
          "name": "tokenId",
          "type": "uint256"
        },
        {
          "internalType": "bytes",
          "name": "_data",
          "type": "bytes"
        }
      ],
      "name": "safeTransferFrom",
      "outputs": [],
      "stateMutability": "nonpayable",
      "type": "function"
    },
    {
      "inputs": [
        {
          "internalType": "bytes4",
          "name": "interfaceId",
          "type": "bytes4"
        }
      ],
      "name": "supportsInterface",
      "outputs": [
        {
          "internalType": "bool",
          "name": "",
          "type": "bool"
        }
      ],
      "stateMutability": "view",
      "type": "function",
      "constant": true
    }
  ],
  "bytecode": "0x60806040523480156200001157600080fd5b506040518060400160405280600681526020017f436f7572736500000000000000000000000000000000000000000000000000008152506040518060400160405280600381526020017f435253000000000000000000000000000000000000000000000000000000000081525081600090805190602001906200009692919062000397565b508060019080519060200190620000af92919062000397565b505050620000c76000801b33620000ff60201b60201c565b620000f97f5f1d1e303f9c0a1801dd708bdc4239781d66c88ca6cb941c5769ba09b5c1b28533620000ff60201b60201c565b620004ac565b6200011182826200011560201b60201c565b5050565b6200012c82826200015d60201b6200194c1760201c565b6200015881600760008581526020019081526020016000206200024f60201b62001a2d1790919060201c565b505050565b6200016f82826200028760201b60201c565b6200024b5760016006600084815260200190815260200160002060000160008373ffffffffffffffffffffffffffffffffffffffff1673ffffffffffffffffffffffffffffffffffffffff16815260200190815260200160002060006101000a81548160ff021916908315150217905550620001f0620002f260201b60201c565b73ffffffffffffffffffffffffffffffffffffffff168173ffffffffffffffffffffffffffffffffffffffff16837f2f8788117e7eff1d82e926ec794901d17c78024a50270940304540a733656f0d60405160405180910390a45b5050565b60006200027f836000018373ffffffffffffffffffffffffffffffffffffffff1660001b620002fa60201b60201c565b905092915050565b60006006600084815260200190815260200160002060000160008373ffffffffffffffffffffffffffffffffffffffff1673ffffffffffffffffffffffffffffffffffffffff16815260200190815260200160002060009054906101000a900460ff16905092915050565b600033905090565b60006200030e83836200037460201b60201c565b620003695782600001829080600181540180825580915050600190039060005260206000200160009091909190915055826000018054905083600101600084815260200190815260200160002081905550600190506200036e565b600090505b92915050565b600080836001016000848152602001908152602001600020541415905092915050565b828054620003a59062000476565b90600052602060002090601f016020900481019282620003c9576000855562000415565b82601f10620003e457805160ff191683800117855562000415565b8280016001018555821562000415579182015b8281111562000414578251825591602001919060010190620003f7565b5b50905062000424919062000428565b5090565b5b808211156200044357600081600090555060010162000429565b5090565b7f4e487b7100000000000000000000000000000000000000000000000000000000600052602260045260246000fd5b600060028204905060018216806200048f57607f821691505b60208210811415620004a657620004a562000447565b5b50919050565b6148c880620004bc6000396000f3fe608060405234801561001057600080fd5b506004361061025e5760003560e01c80638bcf979c11610146578063ad7be93a116100c3578063d547741f11610087578063d547741f14610769578063e17f6b2c14610785578063e78af7c5146107b5578063e985e9c5146107e5578063f7be43fb14610815578063fc3ba6b4146108335761025e565b8063ad7be93a146106b3578063b88d4fde146106d1578063c87b56dd146106ed578063c94d10ad1461071d578063ca15c873146107395761025e565b80639822a5991161010a5780639822a5991461060d578063996dc0221461063d578063a217fddf1461065b578063a22cb46514610679578063a6faa962146106955761025e565b80638bcf979c146105555780638df6674a146105735780639010d07c1461058f57806391d14854146105bf57806395d89b41146105ef5761025e565b80632f2ff15d116101df5780635f1d514e116101a35780635f1d514e1461046f5780636352211e1461048b5780636fe3ceb8146104bb57806370a08231146104d95780637168c27d1461050957806386f8e92c146105395761025e565b80632f2ff15d146103e357806332b3c846146103ff57806336568abe1461041b57806342842e0e146104375780635ea07b1c146104535761025e565b80631c351a9d116102265780631c351a9d1461032d57806323b872dd14610349578063248a9ca31461036557806324d42a37146103955780632be7dc44146103b35761025e565b806301ffc9a71461026357806306fdde0314610293578063081812fc146102b1578063095ea7b3146102e15780630baf40e3146102fd575b600080fd5b61027d60048036038101906102789190613009565b610863565b60405161028a9190613051565b60405180910390f35b61029b610875565b6040516102a89190613105565b60405180910390f35b6102cb60048036038101906102c6919061315d565b610907565b6040516102d891906131cb565b60405180910390f35b6102fb60048036038101906102f69190613212565b61098c565b005b61031760048036038101906103129190613252565b610aa4565b604051610324919061333d565b60405180910390f35b61034760048036038101906103429190613494565b610b3b565b005b610363600480360381019061035e91906134f0565b610d02565b005b61037f600480360381019061037a9190613579565b610d81565b60405161038c91906135b5565b60405180910390f35b61039d610da1565b6040516103aa91906135b5565b60405180910390f35b6103cd60048036038101906103c89190613252565b610dc5565b6040516103da9190613051565b60405180910390f35b6103fd60048036038101906103f891906135d0565b610df8565b005b61041960048036038101906104149190613252565b610e21565b005b610435600480360381019061043091906135d0565b610e81565b005b610451600480360381019061044c91906134f0565b610f04565b005b61046d60048036038101906104689190613252565b610f83565b005b61048960048036038101906104849190613252565b611040565b005b6104a560048036038101906104a0919061315d565b6110a0565b6040516104b291906131cb565b60405180910390f35b6104c3611152565b6040516104d091906135b5565b60405180910390f35b6104f360048036038101906104ee9190613252565b611176565b604051610500919061361f565b60405180910390f35b610523600480360381019061051e9190613252565b61122e565b6040516105309190613051565b60405180910390f35b610553600480360381019061054e9190613252565b611261565b005b61055d6112c1565b60405161056a91906135b5565b60405180910390f35b61058d60048036038101906105889190613252565b6112e5565b005b6105a960048036038101906105a4919061363a565b611389565b6040516105b691906131cb565b60405180910390f35b6105d960048036038101906105d491906135d0565b6113b8565b6040516105e69190613051565b60405180910390f35b6105f7611423565b6040516106049190613105565b60405180910390f35b61062760048036038101906106229190613252565b6114b5565b6040516106349190613051565b60405180910390f35b6106456114e8565b60405161065291906135b5565b60405180910390f35b61066361150c565b60405161067091906135b5565b60405180910390f35b610693600480360381019061068e91906136a6565b611513565b005b61069d611529565b6040516106aa91906137f2565b60405180910390f35b6106bb611602565b6040516106c891906135b5565b60405180910390f35b6106eb60048036038101906106e691906138b5565b611626565b005b6107076004803603810190610702919061315d565b6116a7565b6040516107149190613105565b60405180910390f35b61073760048036038101906107329190613252565b61174e565b005b610753600480360381019061074e9190613579565b6117ae565b604051610760919061361f565b60405180910390f35b610783600480360381019061077e91906135d0565b6117d2565b005b61079f600480360381019061079a9190613252565b6117fb565b6040516107ac9190613051565b60405180910390f35b6107cf60048036038101906107ca9190613252565b61182e565b6040516107dc9190613051565b60405180910390f35b6107ff60048036038101906107fa9190613938565b611861565b60405161080c9190613051565b60405180910390f35b61081d6118f5565b60405161082a91906135b5565b60405180910390f35b61084d60048036038101906108489190613252565b611919565b60405161085a9190613051565b60405180910390f35b600061086e82611a5d565b9050919050565b606060008054610884906139a7565b80601f01602080910402602001604051908101604052809291908181526020018280546108b0906139a7565b80156108fd5780601f106108d2576101008083540402835291602001916108fd565b820191906000526020600020905b8154815290600101906020018083116108e057829003601f168201915b5050505050905090565b600061091282611ad7565b610951576040517f08c379a000000000000000000000000000000000000000000000000000000000815260040161094890613a4b565b60405180910390fd5b6004600083815260200190815260200160002060009054906101000a900473ffffffffffffffffffffffffffffffffffffffff169050919050565b6000610997826110a0565b90508073ffffffffffffffffffffffffffffffffffffffff168373ffffffffffffffffffffffffffffffffffffffff161415610a08576040517f08c379a00000000000000000000000000000000000000000000000000000000081526004016109ff90613add565b60405180910390fd5b8073ffffffffffffffffffffffffffffffffffffffff16610a27611b43565b73ffffffffffffffffffffffffffffffffffffffff161480610a565750610a5581610a50611b43565b611861565b5b610a95576040517f08c379a0000000000000000000000000000000000000000000000000000000008152600401610a8c90613b6f565b60405180910390fd5b610a9f8383611b4b565b505050565b6060600860008373ffffffffffffffffffffffffffffffffffffffff1673ffffffffffffffffffffffffffffffffffffffff168152602001908152602001600020805480602002602001604051908101604052809291908181526020018280548015610b2f57602002820191906000526020600020905b815481526020019060010190808311610b1b575b50505050509050919050565b600b82604051610b4b9190613bcb565b908152602001604051809103902060009054906101000a900460ff1615610ba7576040517f08c379a0000000000000000000000000000000000000000000000000000000008152600401610b9e90613c2e565b60405180910390fd5b610bd17fae4a0595970935aa5495afbbb72e5f1f6ff1062766b4a3028c0c9b7d5cf7e345826113b8565b610c10576040517f08c379a0000000000000000000000000000000000000000000000000000000008152600401610c0790613cc0565b60405180910390fd5b600c82908060018154018082558091505060019003906000526020600020016000909190919091509080519060200190610c4b929190612efa565b506000600c805490509050610c608282611c04565b6001600b84604051610c729190613bcb565b908152602001604051809103902060006101000a81548160ff021916908315150217905550600860008373ffffffffffffffffffffffffffffffffffffffff1673ffffffffffffffffffffffffffffffffffffffff168152602001908152602001600020819080600181540180825580915050600190039060005260206000200160009091909190915055505050565b600073ffffffffffffffffffffffffffffffffffffffff163373ffffffffffffffffffffffffffffffffffffffff1614610d71576040517f08c379a0000000000000000000000000000000000000000000000000000000008152600401610d6890613d52565b60405180910390fd5b610d7c838383611dd2565b505050565b600060066000838152602001908152602001600020600101549050919050565b7f5f1d1e303f9c0a1801dd708bdc4239781d66c88ca6cb941c5769ba09b5c1b28581565b6000610df17f5f1d1e303f9c0a1801dd708bdc4239781d66c88ca6cb941c5769ba09b5c1b285836113b8565b9050919050565b610e0182610d81565b610e1281610e0d611b43565b611e32565b610e1c8383611ecf565b505050565b7f5f1d1e303f9c0a1801dd708bdc4239781d66c88ca6cb941c5769ba09b5c1b285610e5381610e4e611b43565b611e32565b610e7d7f36a5c4aaacb6b388bbd448bf11096b7dafc5652bcc9046084fd0e95b1fb0b2cc836117d2565b5050565b610e89611b43565b73ffffffffffffffffffffffffffffffffffffffff168173ffffffffffffffffffffffffffffffffffffffff1614610ef6576040517f08c379a0000000000000000000000000000000000000000000000000000000008152600401610eed90613de4565b60405180910390fd5b610f008282611f03565b5050565b600073ffffffffffffffffffffffffffffffffffffffff163373ffffffffffffffffffffffffffffffffffffffff1614610f73576040517f08c379a0000000000000000000000000000000000000000000000000000000008152600401610f6a90613d52565b60405180910390fd5b610f7e838383611f37565b505050565b7f5f1d1e303f9c0a1801dd708bdc4239781d66c88ca6cb941c5769ba09b5c1b285610fb581610fb0611b43565b611e32565b610fdf7f36a5c4aaacb6b388bbd448bf11096b7dafc5652bcc9046084fd0e95b1fb0b2cc836113b8565b610fe857600080fd5b6110127f36a5c4aaacb6b388bbd448bf11096b7dafc5652bcc9046084fd0e95b1fb0b2cc836117d2565b61103c7f4758f7d70d6088cbfad5c79861ac6457ba2af02adf5ea419e97879ae24459cb683610df8565b5050565b7f5f1d1e303f9c0a1801dd708bdc4239781d66c88ca6cb941c5769ba09b5c1b2856110728161106d611b43565b611e32565b61109c7fae4a0595970935aa5495afbbb72e5f1f6ff1062766b4a3028c0c9b7d5cf7e34583610df8565b5050565b6000806002600084815260200190815260200160002060009054906101000a900473ffffffffffffffffffffffffffffffffffffffff169050600073ffffffffffffffffffffffffffffffffffffffff168173ffffffffffffffffffffffffffffffffffffffff161415611149576040517f08c379a000000000000000000000000000000000000000000000000000000000815260040161114090613e76565b60405180910390fd5b80915050919050565b7ff3f9cfff7b46f415da5a492b1718971da203f87c6aae9299e7b408eb83ef8bee81565b60008073ffffffffffffffffffffffffffffffffffffffff168273ffffffffffffffffffffffffffffffffffffffff1614156111e7576040517f08c379a00000000000000000000000000000000000000000000000000000000081526004016111de90613f08565b60405180910390fd5b600360008373ffffffffffffffffffffffffffffffffffffffff1673ffffffffffffffffffffffffffffffffffffffff168152602001908152602001600020549050919050565b600061125a7f4758f7d70d6088cbfad5c79861ac6457ba2af02adf5ea419e97879ae24459cb6836113b8565b9050919050565b7f5f1d1e303f9c0a1801dd708bdc4239781d66c88ca6cb941c5769ba09b5c1b2856112938161128e611b43565b611e32565b6112bd7fae4a0595970935aa5495afbbb72e5f1f6ff1062766b4a3028c0c9b7d5cf7e345836117d2565b5050565b7fae4a0595970935aa5495afbbb72e5f1f6ff1062766b4a3028c0c9b7d5cf7e34581565b7f5f1d1e303f9c0a1801dd708bdc4239781d66c88ca6cb941c5769ba09b5c1b28561131781611312611b43565b611e32565b6113417f5f1d1e303f9c0a1801dd708bdc4239781d66c88ca6cb941c5769ba09b5c1b28583610df8565b61134e6000801b83610df8565b61135b6000801b33610e81565b6113857f5f1d1e303f9c0a1801dd708bdc4239781d66c88ca6cb941c5769ba09b5c1b28533610e81565b5050565b60006113b08260076000868152602001908152602001600020611f5790919063ffffffff16565b905092915050565b60006006600084815260200190815260200160002060000160008373ffffffffffffffffffffffffffffffffffffffff1673ffffffffffffffffffffffffffffffffffffffff16815260200190815260200160002060009054906101000a900460ff16905092915050565b606060018054611432906139a7565b80601f016020809104026020016040519081016040528092919081815260200182805461145e906139a7565b80156114ab5780601f10611480576101008083540402835291602001916114ab565b820191906000526020600020905b81548152906001019060200180831161148e57829003601f168201915b5050505050905090565b60006114e17fae4a0595970935aa5495afbbb72e5f1f6ff1062766b4a3028c0c9b7d5cf7e345836113b8565b9050919050565b7fe7837d04f36ce0b2f3cc662bf1b2b632a7fbd12ae95199e8bd3dcfbcc440b66b81565b6000801b81565b61152561151e611b43565b8383611f71565b5050565b6060600c805480602002602001604051908101604052809291908181526020016000905b828210156115f957838290600052602060002001805461156c906139a7565b80601f0160208091040260200160405190810160405280929190818152602001828054611598906139a7565b80156115e55780601f106115ba576101008083540402835291602001916115e5565b820191906000526020600020905b8154815290600101906020018083116115c857829003601f168201915b50505050508152602001906001019061154d565b50505050905090565b7f4758f7d70d6088cbfad5c79861ac6457ba2af02adf5ea419e97879ae24459cb681565b600073ffffffffffffffffffffffffffffffffffffffff163373ffffffffffffffffffffffffffffffffffffffff1614611695576040517f08c379a000000000000000000000000000000000000000000000000000000000815260040161168c90613d52565b60405180910390fd5b6116a1848484846120de565b50505050565b60606116b282611ad7565b6116f1576040517f08c379a00000000000000000000000000000000000000000000000000000000081526004016116e890613f9a565b60405180910390fd5b60006116fb612140565b9050600081511161171b5760405180602001604052806000815250611746565b8061172584612157565b604051602001611736929190613fba565b6040516020818303038152906040525b915050919050565b7f5f1d1e303f9c0a1801dd708bdc4239781d66c88ca6cb941c5769ba09b5c1b2856117808161177b611b43565b611e32565b6117aa7f36a5c4aaacb6b388bbd448bf11096b7dafc5652bcc9046084fd0e95b1fb0b2cc83610df8565b5050565b60006117cb600760008481526020019081526020016000206122b8565b9050919050565b6117db82610d81565b6117ec816117e7611b43565b611e32565b6117f68383611f03565b505050565b60006118277fe7837d04f36ce0b2f3cc662bf1b2b632a7fbd12ae95199e8bd3dcfbcc440b66b836113b8565b9050919050565b600061185a7ff3f9cfff7b46f415da5a492b1718971da203f87c6aae9299e7b408eb83ef8bee836113b8565b9050919050565b6000600560008473ffffffffffffffffffffffffffffffffffffffff1673ffffffffffffffffffffffffffffffffffffffff16815260200190815260200160002060008373ffffffffffffffffffffffffffffffffffffffff1673ffffffffffffffffffffffffffffffffffffffff16815260200190815260200160002060009054906101000a900460ff16905092915050565b7f36a5c4aaacb6b388bbd448bf11096b7dafc5652bcc9046084fd0e95b1fb0b2cc81565b60006119457f36a5c4aaacb6b388bbd448bf11096b7dafc5652bcc9046084fd0e95b1fb0b2cc836113b8565b9050919050565b61195682826113b8565b611a295760016006600084815260200190815260200160002060000160008373ffffffffffffffffffffffffffffffffffffffff1673ffffffffffffffffffffffffffffffffffffffff16815260200190815260200160002060006101000a81548160ff0219169083151502179055506119ce611b43565b73ffffffffffffffffffffffffffffffffffffffff168173ffffffffffffffffffffffffffffffffffffffff16837f2f8788117e7eff1d82e926ec794901d17c78024a50270940304540a733656f0d60405160405180910390a45b5050565b6000611a55836000018373ffffffffffffffffffffffffffffffffffffffff1660001b6122cd565b905092915050565b60007f5a05180f000000000000000000000000000000000000000000000000000000007bffffffffffffffffffffffffffffffffffffffffffffffffffffffff1916827bffffffffffffffffffffffffffffffffffffffffffffffffffffffff19161480611ad05750611acf8261233d565b5b9050919050565b60008073ffffffffffffffffffffffffffffffffffffffff166002600084815260200190815260200160002060009054906101000a900473ffffffffffffffffffffffffffffffffffffffff1673ffffffffffffffffffffffffffffffffffffffff1614159050919050565b600033905090565b816004600083815260200190815260200160002060006101000a81548173ffffffffffffffffffffffffffffffffffffffff021916908373ffffffffffffffffffffffffffffffffffffffff160217905550808273ffffffffffffffffffffffffffffffffffffffff16611bbe836110a0565b73ffffffffffffffffffffffffffffffffffffffff167f8c5be1e5ebec7d5bd14f71427d1e84f3dd0314c0f7b2291e5b200ac8c7c3b92560405160405180910390a45050565b600073ffffffffffffffffffffffffffffffffffffffff168273ffffffffffffffffffffffffffffffffffffffff161415611c74576040517f08c379a0000000000000000000000000000000000000000000000000000000008152600401611c6b9061402a565b60405180910390fd5b611c7d81611ad7565b15611cbd576040517f08c379a0000000000000000000000000000000000000000000000000000000008152600401611cb490614096565b60405180910390fd5b611cc9600083836123b7565b6001600360008473ffffffffffffffffffffffffffffffffffffffff1673ffffffffffffffffffffffffffffffffffffffff1681526020019081526020016000206000828254611d1991906140e5565b92505081905550816002600083815260200190815260200160002060006101000a81548173ffffffffffffffffffffffffffffffffffffffff021916908373ffffffffffffffffffffffffffffffffffffffff160217905550808273ffffffffffffffffffffffffffffffffffffffff16600073ffffffffffffffffffffffffffffffffffffffff167fddf252ad1be2c89b69c2b068fc378daa952ba7f163c4a11628f55a4df523b3ef60405160405180910390a45050565b611de3611ddd611b43565b826123bc565b611e22576040517f08c379a0000000000000000000000000000000000000000000000000000000008152600401611e19906141ad565b60405180910390fd5b611e2d83838361249a565b505050565b611e3c82826113b8565b611ecb57611e618173ffffffffffffffffffffffffffffffffffffffff1660146126f6565b611e6f8360001c60206126f6565b604051602001611e80929190614265565b6040516020818303038152906040526040517f08c379a0000000000000000000000000000000000000000000000000000000008152600401611ec29190613105565b60405180910390fd5b5050565b611ed9828261194c565b611efe8160076000858152602001908152602001600020611a2d90919063ffffffff16565b505050565b611f0d8282612932565b611f328160076000858152602001908152602001600020612a1490919063ffffffff16565b505050565b611f5283838360405180602001604052806000815250611626565b505050565b6000611f668360000183612a44565b60001c905092915050565b8173ffffffffffffffffffffffffffffffffffffffff168373ffffffffffffffffffffffffffffffffffffffff161415611fe0576040517f08c379a0000000000000000000000000000000000000000000000000000000008152600401611fd7906142eb565b60405180910390fd5b80600560008573ffffffffffffffffffffffffffffffffffffffff1673ffffffffffffffffffffffffffffffffffffffff16815260200190815260200160002060008473ffffffffffffffffffffffffffffffffffffffff1673ffffffffffffffffffffffffffffffffffffffff16815260200190815260200160002060006101000a81548160ff0219169083151502179055508173ffffffffffffffffffffffffffffffffffffffff168373ffffffffffffffffffffffffffffffffffffffff167f17307eab39ab6107e8899845ad3d59bd9653f200f220920489ca2b5937696c31836040516120d19190613051565b60405180910390a3505050565b6120ef6120e9611b43565b836123bc565b61212e576040517f08c379a0000000000000000000000000000000000000000000000000000000008152600401612125906141ad565b60405180910390fd5b61213a84848484612a6f565b50505050565b606060405180602001604052806000815250905090565b6060600082141561219f576040518060400160405280600181526020017f300000000000000000000000000000000000000000000000000000000000000081525090506122b3565b600082905060005b600082146121d15780806121ba9061430b565b915050600a826121ca9190614383565b91506121a7565b60008167ffffffffffffffff8111156121ed576121ec613369565b5b6040519080825280601f01601f19166020018201604052801561221f5781602001600182028036833780820191505090505b5090505b600085146122ac5760018261223891906143b4565b9150600a8561224791906143e8565b603061225391906140e5565b60f81b81838151811061226957612268614419565b5b60200101907effffffffffffffffffffffffffffffffffffffffffffffffffffffffffffff1916908160001a905350600a856122a59190614383565b9450612223565b8093505050505b919050565b60006122c682600001612acb565b9050919050565b60006122d98383612adc565b612332578260000182908060018154018082558091505060019003906000526020600020016000909190919091505582600001805490508360010160008481526020019081526020016000208190555060019050612337565b600090505b92915050565b60007f7965db0b000000000000000000000000000000000000000000000000000000007bffffffffffffffffffffffffffffffffffffffffffffffffffffffff1916827bffffffffffffffffffffffffffffffffffffffffffffffffffffffff191614806123b057506123af82612aff565b5b9050919050565b505050565b60006123c782611ad7565b612406576040517f08c379a00000000000000000000000000000000000000000000000000000000081526004016123fd906144ba565b60405180910390fd5b6000612411836110a0565b90508073ffffffffffffffffffffffffffffffffffffffff168473ffffffffffffffffffffffffffffffffffffffff16148061248057508373ffffffffffffffffffffffffffffffffffffffff1661246884610907565b73ffffffffffffffffffffffffffffffffffffffff16145b8061249157506124908185611861565b5b91505092915050565b8273ffffffffffffffffffffffffffffffffffffffff166124ba826110a0565b73ffffffffffffffffffffffffffffffffffffffff1614612510576040517f08c379a00000000000000000000000000000000000000000000000000000000081526004016125079061454c565b60405180910390fd5b600073ffffffffffffffffffffffffffffffffffffffff168273ffffffffffffffffffffffffffffffffffffffff161415612580576040517f08c379a0000000000000000000000000000000000000000000000000000000008152600401612577906145de565b60405180910390fd5b61258b8383836123b7565b612596600082611b4b565b6001600360008573ffffffffffffffffffffffffffffffffffffffff1673ffffffffffffffffffffffffffffffffffffffff16815260200190815260200160002060008282546125e691906143b4565b925050819055506001600360008473ffffffffffffffffffffffffffffffffffffffff1673ffffffffffffffffffffffffffffffffffffffff168152602001908152602001600020600082825461263d91906140e5565b92505081905550816002600083815260200190815260200160002060006101000a81548173ffffffffffffffffffffffffffffffffffffffff021916908373ffffffffffffffffffffffffffffffffffffffff160217905550808273ffffffffffffffffffffffffffffffffffffffff168473ffffffffffffffffffffffffffffffffffffffff167fddf252ad1be2c89b69c2b068fc378daa952ba7f163c4a11628f55a4df523b3ef60405160405180910390a4505050565b60606000600283600261270991906145fe565b61271391906140e5565b67ffffffffffffffff81111561272c5761272b613369565b5b6040519080825280601f01601f19166020018201604052801561275e5781602001600182028036833780820191505090505b5090507f30000000000000000000000000000000000000000000000000000000000000008160008151811061279657612795614419565b5b60200101907effffffffffffffffffffffffffffffffffffffffffffffffffffffffffffff1916908160001a9053507f7800000000000000000000000000000000000000000000000000000000000000816001815181106127fa576127f9614419565b5b60200101907effffffffffffffffffffffffffffffffffffffffffffffffffffffffffffff1916908160001a9053506000600184600261283a91906145fe565b61284491906140e5565b90505b60018111156128e4577f3031323334353637383961626364656600000000000000000000000000000000600f86166010811061288657612885614419565b5b1a60f81b82828151811061289d5761289c614419565b5b60200101907effffffffffffffffffffffffffffffffffffffffffffffffffffffffffffff1916908160001a905350600485901c9450806128dd90614658565b9050612847565b5060008414612928576040517f08c379a000000000000000000000000000000000000000000000000000000000815260040161291f906146ce565b60405180910390fd5b8091505092915050565b61293c82826113b8565b15612a105760006006600084815260200190815260200160002060000160008373ffffffffffffffffffffffffffffffffffffffff1673ffffffffffffffffffffffffffffffffffffffff16815260200190815260200160002060006101000a81548160ff0219169083151502179055506129b5611b43565b73ffffffffffffffffffffffffffffffffffffffff168173ffffffffffffffffffffffffffffffffffffffff16837ff6391f5c32d9c69d2a47ea670b442974b53935d1edc7fd64eb21e047a839171b60405160405180910390a45b5050565b6000612a3c836000018373ffffffffffffffffffffffffffffffffffffffff1660001b612be1565b905092915050565b6000826000018281548110612a5c57612a5b614419565b5b9060005260206000200154905092915050565b612a7a84848461249a565b612a8684848484612cf5565b612ac5576040517f08c379a0000000000000000000000000000000000000000000000000000000008152600401612abc90614760565b60405180910390fd5b50505050565b600081600001805490509050919050565b600080836001016000848152602001908152602001600020541415905092915050565b60007f80ac58cd000000000000000000000000000000000000000000000000000000007bffffffffffffffffffffffffffffffffffffffffffffffffffffffff1916827bffffffffffffffffffffffffffffffffffffffffffffffffffffffff19161480612bca57507f5b5e139f000000000000000000000000000000000000000000000000000000007bffffffffffffffffffffffffffffffffffffffffffffffffffffffff1916827bffffffffffffffffffffffffffffffffffffffffffffffffffffffff1916145b80612bda5750612bd982612e7d565b5b9050919050565b60008083600101600084815260200190815260200160002054905060008114612ce9576000600182612c1391906143b4565b9050600060018660000180549050612c2b91906143b4565b9050818114612c9a576000866000018281548110612c4c57612c4b614419565b5b9060005260206000200154905080876000018481548110612c7057612c6f614419565b5b90600052602060002001819055508387600101600083815260200190815260200160002081905550505b85600001805480612cae57612cad614780565b5b600190038181906000526020600020016000905590558560010160008681526020019081526020016000206000905560019350505050612cef565b60009150505b92915050565b6000612d168473ffffffffffffffffffffffffffffffffffffffff16612ee7565b15612e70578373ffffffffffffffffffffffffffffffffffffffff1663150b7a02612d3f611b43565b8786866040518563ffffffff1660e01b8152600401612d619493929190614804565b6020604051808303816000875af1925050508015612d9d57506040513d601f19601f82011682018060405250810190612d9a9190614865565b60015b612e20573d8060008114612dcd576040519150601f19603f3d011682016040523d82523d6000602084013e612dd2565b606091505b50600081511415612e18576040517f08c379a0000000000000000000000000000000000000000000000000000000008152600401612e0f90614760565b60405180910390fd5b805181602001fd5b63150b7a0260e01b7bffffffffffffffffffffffffffffffffffffffffffffffffffffffff1916817bffffffffffffffffffffffffffffffffffffffffffffffffffffffff191614915050612e75565b600190505b949350505050565b60007f01ffc9a7000000000000000000000000000000000000000000000000000000007bffffffffffffffffffffffffffffffffffffffffffffffffffffffff1916827bffffffffffffffffffffffffffffffffffffffffffffffffffffffff1916149050919050565b600080823b905060008111915050919050565b828054612f06906139a7565b90600052602060002090601f016020900481019282612f285760008555612f6f565b82601f10612f4157805160ff1916838001178555612f6f565b82800160010185558215612f6f579182015b82811115612f6e578251825591602001919060010190612f53565b5b509050612f7c9190612f80565b5090565b5b80821115612f99576000816000905550600101612f81565b5090565b6000604051905090565b600080fd5b600080fd5b60007fffffffff0000000000000000000000000000000000000000000000000000000082169050919050565b612fe681612fb1565b8114612ff157600080fd5b50565b60008135905061300381612fdd565b92915050565b60006020828403121561301f5761301e612fa7565b5b600061302d84828501612ff4565b91505092915050565b60008115159050919050565b61304b81613036565b82525050565b60006020820190506130666000830184613042565b92915050565b600081519050919050565b600082825260208201905092915050565b60005b838110156130a657808201518184015260208101905061308b565b838111156130b5576000848401525b50505050565b6000601f19601f8301169050919050565b60006130d78261306c565b6130e18185613077565b93506130f1818560208601613088565b6130fa816130bb565b840191505092915050565b6000602082019050818103600083015261311f81846130cc565b905092915050565b6000819050919050565b61313a81613127565b811461314557600080fd5b50565b60008135905061315781613131565b92915050565b60006020828403121561317357613172612fa7565b5b600061318184828501613148565b91505092915050565b600073ffffffffffffffffffffffffffffffffffffffff82169050919050565b60006131b58261318a565b9050919050565b6131c5816131aa565b82525050565b60006020820190506131e060008301846131bc565b92915050565b6131ef816131aa565b81146131fa57600080fd5b50565b60008135905061320c816131e6565b92915050565b6000806040838503121561322957613228612fa7565b5b6000613237858286016131fd565b925050602061324885828601613148565b9150509250929050565b60006020828403121561326857613267612fa7565b5b6000613276848285016131fd565b91505092915050565b600081519050919050565b600082825260208201905092915050565b6000819050602082019050919050565b6132b481613127565b82525050565b60006132c683836132ab565b60208301905092915050565b6000602082019050919050565b60006132ea8261327f565b6132f4818561328a565b93506132ff8361329b565b8060005b8381101561333057815161331788826132ba565b9750613322836132d2565b925050600181019050613303565b5085935050505092915050565b6000602082019050818103600083015261335781846132df565b905092915050565b600080fd5b600080fd5b7f4e487b7100000000000000000000000000000000000000000000000000000000600052604160045260246000fd5b6133a1826130bb565b810181811067ffffffffffffffff821117156133c0576133bf613369565b5b80604052505050565b60006133d3612f9d565b90506133df8282613398565b919050565b600067ffffffffffffffff8211156133ff576133fe613369565b5b613408826130bb565b9050602081019050919050565b82818337600083830152505050565b6000613437613432846133e4565b6133c9565b90508281526020810184848401111561345357613452613364565b5b61345e848285613415565b509392505050565b600082601f83011261347b5761347a61335f565b5b813561348b848260208601613424565b91505092915050565b600080604083850312156134ab576134aa612fa7565b5b600083013567ffffffffffffffff8111156134c9576134c8612fac565b5b6134d585828601613466565b92505060206134e6858286016131fd565b9150509250929050565b60008060006060848603121561350957613508612fa7565b5b6000613517868287016131fd565b9350506020613528868287016131fd565b925050604061353986828701613148565b9150509250925092565b6000819050919050565b61355681613543565b811461356157600080fd5b50565b6000813590506135738161354d565b92915050565b60006020828403121561358f5761358e612fa7565b5b600061359d84828501613564565b91505092915050565b6135af81613543565b82525050565b60006020820190506135ca60008301846135a6565b92915050565b600080604083850312156135e7576135e6612fa7565b5b60006135f585828601613564565b9250506020613606858286016131fd565b9150509250929050565b61361981613127565b82525050565b60006020820190506136346000830184613610565b92915050565b6000806040838503121561365157613650612fa7565b5b600061365f85828601613564565b925050602061367085828601613148565b9150509250929050565b61368381613036565b811461368e57600080fd5b50565b6000813590506136a08161367a565b92915050565b600080604083850312156136bd576136bc612fa7565b5b60006136cb858286016131fd565b92505060206136dc85828601613691565b9150509250929050565b600081519050919050565b600082825260208201905092915050565b6000819050602082019050919050565b600082825260208201905092915050565b600061372e8261306c565b6137388185613712565b9350613748818560208601613088565b613751816130bb565b840191505092915050565b60006137688383613723565b905092915050565b6000602082019050919050565b6000613788826136e6565b61379281856136f1565b9350836020820285016137a485613702565b8060005b858110156137e057848403895281516137c1858261375c565b94506137cc83613770565b925060208a019950506001810190506137a8565b50829750879550505050505092915050565b6000602082019050818103600083015261380c818461377d565b905092915050565b600067ffffffffffffffff82111561382f5761382e613369565b5b613838826130bb565b9050602081019050919050565b600061385861385384613814565b6133c9565b90508281526020810184848401111561387457613873613364565b5b61387f848285613415565b509392505050565b600082601f83011261389c5761389b61335f565b5b81356138ac848260208601613845565b91505092915050565b600080600080608085870312156138cf576138ce612fa7565b5b60006138dd878288016131fd565b94505060206138ee878288016131fd565b93505060406138ff87828801613148565b925050606085013567ffffffffffffffff8111156139205761391f612fac565b5b61392c87828801613887565b91505092959194509250565b6000806040838503121561394f5761394e612fa7565b5b600061395d858286016131fd565b925050602061396e858286016131fd565b9150509250929050565b7f4e487b7100000000000000000000000000000000000000000000000000000000600052602260045260246000fd5b600060028204905060018216806139bf57607f821691505b602082108114156139d3576139d2613978565b5b50919050565b7f4552433732313a20617070726f76656420717565727920666f72206e6f6e657860008201527f697374656e7420746f6b656e0000000000000000000000000000000000000000602082015250565b6000613a35602c83613077565b9150613a40826139d9565b604082019050919050565b60006020820190508181036000830152613a6481613a28565b9050919050565b7f4552433732313a20617070726f76616c20746f2063757272656e74206f776e6560008201527f7200000000000000000000000000000000000000000000000000000000000000602082015250565b6000613ac7602183613077565b9150613ad282613a6b565b604082019050919050565b60006020820190508181036000830152613af681613aba565b9050919050565b7f4552433732313a20617070726f76652063616c6c6572206973206e6f74206f7760008201527f6e6572206e6f7220617070726f76656420666f7220616c6c0000000000000000602082015250565b6000613b59603883613077565b9150613b6482613afd565b604082019050919050565b60006020820190508181036000830152613b8881613b4c565b9050919050565b600081905092915050565b6000613ba58261306c565b613baf8185613b8f565b9350613bbf818560208601613088565b80840191505092915050565b6000613bd78284613b9a565b915081905092915050565b7f54686973206c696e6b20697320616c7265616479206d696e7465640000000000600082015250565b6000613c18601b83613077565b9150613c2382613be2565b602082019050919050565b60006020820190508181036000830152613c4781613c0b565b9050919050565b7f546869732061646472657373206973206e6f7420616e20696e7374727563746f60008201527f7200000000000000000000000000000000000000000000000000000000000000602082015250565b6000613caa602183613077565b9150613cb582613c4e565b604082019050919050565b60006020820190508181036000830152613cd981613c9d565b9050919050565b7f5472616e73666572206166746572206d696e742069732070726f68696269746560008201527f6400000000000000000000000000000000000000000000000000000000000000602082015250565b6000613d3c602183613077565b9150613d4782613ce0565b604082019050919050565b60006020820190508181036000830152613d6b81613d2f565b9050919050565b7f416363657373436f6e74726f6c3a2063616e206f6e6c792072656e6f756e636560008201527f20726f6c657320666f722073656c660000000000000000000000000000000000602082015250565b6000613dce602f83613077565b9150613dd982613d72565b604082019050919050565b60006020820190508181036000830152613dfd81613dc1565b9050919050565b7f4552433732313a206f776e657220717565727920666f72206e6f6e657869737460008201527f656e7420746f6b656e0000000000000000000000000000000000000000000000602082015250565b6000613e60602983613077565b9150613e6b82613e04565b604082019050919050565b60006020820190508181036000830152613e8f81613e53565b9050919050565b7f4552433732313a2062616c616e636520717565727920666f7220746865207a6560008201527f726f206164647265737300000000000000000000000000000000000000000000602082015250565b6000613ef2602a83613077565b9150613efd82613e96565b604082019050919050565b60006020820190508181036000830152613f2181613ee5565b9050919050565b7f4552433732314d657461646174613a2055524920717565727920666f72206e6f60008201527f6e6578697374656e7420746f6b656e0000000000000000000000000000000000602082015250565b6000613f84602f83613077565b9150613f8f82613f28565b604082019050919050565b60006020820190508181036000830152613fb381613f77565b9050919050565b6000613fc68285613b9a565b9150613fd28284613b9a565b91508190509392505050565b7f4552433732313a206d696e7420746f20746865207a65726f2061646472657373600082015250565b6000614014602083613077565b915061401f82613fde565b602082019050919050565b6000602082019050818103600083015261404381614007565b9050919050565b7f4552433732313a20746f6b656e20616c7265616479206d696e74656400000000600082015250565b6000614080601c83613077565b915061408b8261404a565b602082019050919050565b600060208201905081810360008301526140af81614073565b9050919050565b7f4e487b7100000000000000000000000000000000000000000000000000000000600052601160045260246000fd5b60006140f082613127565b91506140fb83613127565b9250827fffffffffffffffffffffffffffffffffffffffffffffffffffffffffffffffff038211156141305761412f6140b6565b5b828201905092915050565b7f4552433732313a207472616e736665722063616c6c6572206973206e6f74206f60008201527f776e6572206e6f7220617070726f766564000000000000000000000000000000602082015250565b6000614197603183613077565b91506141a28261413b565b604082019050919050565b600060208201905081810360008301526141c68161418a565b9050919050565b7f416363657373436f6e74726f6c3a206163636f756e7420000000000000000000600082015250565b6000614203601783613b8f565b915061420e826141cd565b601782019050919050565b7f206973206d697373696e6720726f6c6520000000000000000000000000000000600082015250565b600061424f601183613b8f565b915061425a82614219565b601182019050919050565b6000614270826141f6565b915061427c8285613b9a565b915061428782614242565b91506142938284613b9a565b91508190509392505050565b7f4552433732313a20617070726f766520746f2063616c6c657200000000000000600082015250565b60006142d5601983613077565b91506142e08261429f565b602082019050919050565b60006020820190508181036000830152614304816142c8565b9050919050565b600061431682613127565b91507fffffffffffffffffffffffffffffffffffffffffffffffffffffffffffffffff821415614349576143486140b6565b5b600182019050919050565b7f4e487b7100000000000000000000000000000000000000000000000000000000600052601260045260246000fd5b600061438e82613127565b915061439983613127565b9250826143a9576143a8614354565b5b828204905092915050565b60006143bf82613127565b91506143ca83613127565b9250828210156143dd576143dc6140b6565b5b828203905092915050565b60006143f382613127565b91506143fe83613127565b92508261440e5761440d614354565b5b828206905092915050565b7f4e487b7100000000000000000000000000000000000000000000000000000000600052603260045260246000fd5b7f4552433732313a206f70657261746f7220717565727920666f72206e6f6e657860008201527f697374656e7420746f6b656e0000000000000000000000000000000000000000602082015250565b60006144a4602c83613077565b91506144af82614448565b604082019050919050565b600060208201905081810360008301526144d381614497565b9050919050565b7f4552433732313a207472616e73666572206f6620746f6b656e2074686174206960008201527f73206e6f74206f776e0000000000000000000000000000000000000000000000602082015250565b6000614536602983613077565b9150614541826144da565b604082019050919050565b6000602082019050818103600083015261456581614529565b9050919050565b7f4552433732313a207472616e7366657220746f20746865207a65726f2061646460008201527f7265737300000000000000000000000000000000000000000000000000000000602082015250565b60006145c8602483613077565b91506145d38261456c565b604082019050919050565b600060208201905081810360008301526145f7816145bb565b9050919050565b600061460982613127565b915061461483613127565b9250817fffffffffffffffffffffffffffffffffffffffffffffffffffffffffffffffff048311821515161561464d5761464c6140b6565b5b828202905092915050565b600061466382613127565b91506000821415614677576146766140b6565b5b600182039050919050565b7f537472696e67733a20686578206c656e67746820696e73756666696369656e74600082015250565b60006146b8602083613077565b91506146c382614682565b602082019050919050565b600060208201905081810360008301526146e7816146ab565b9050919050565b7f4552433732313a207472616e7366657220746f206e6f6e20455243373231526560008201527f63656976657220696d706c656d656e7465720000000000000000000000000000602082015250565b600061474a603283613077565b9150614755826146ee565b604082019050919050565b600060208201905081810360008301526147798161473d565b9050919050565b7f4e487b7100000000000000000000000000000000000000000000000000000000600052603160045260246000fd5b600081519050919050565b600082825260208201905092915050565b60006147d6826147af565b6147e081856147ba565b93506147f0818560208601613088565b6147f9816130bb565b840191505092915050565b600060808201905061481960008301876131bc565b61482660208301866131bc565b6148336040830185613610565b818103606083015261484581846147cb565b905095945050505050565b60008151905061485f81612fdd565b92915050565b60006020828403121561487b5761487a612fa7565b5b600061488984828501614850565b9150509291505056fea2646970667358221220e33fbd9ab179bf7d21bf258856748094f2c173938c99fe12a6cd476d289f588864736f6c634300080a0033",
  "immutableReferences": {},
  "source": "pragma solidity ^0.8.10;\r\n\r\nimport \"@openzeppelin/contracts/token/ERC721/ERC721.sol\";\r\nimport \"./Roles.sol\";\r\n\r\ncontract Course is ERC721, Roles{\r\n\r\n    //Mapping of the instructor to the tokenIDs\r\n    mapping(address => uint256[]) _givesCourses;\r\n    //Mapping of the tokenID to the owner is defined in ERC721.sol\r\n    //Mapping of the student to the tokenIDs\r\n\r\n    //TODO///////////////////////////////////////////\r\n    mapping(address => uint256[]) _takesCourses;\r\n    //Mapping of the tokenID to the students\r\n    mapping(uint256 => address[]) _studentsOf;\r\n    //is Course link exist\r\n    //TODO///////////////////////////////////////////\r\n\r\n    mapping(string => bool) _courseExist;\r\n    //List of Course Links\r\n    string[] _courseLinks;\r\n\r\n    constructor() ERC721(\"Course\", \"CRS\"){\r\n        _setupRole(DEFAULT_ADMIN_ROLE, msg.sender);\r\n        _setupRole(RECTOR_ROLE, msg.sender);\r\n    }\r\n\r\n    //TODO Change It To Role Based Ownership From Public\r\n    function mint(string memory _courseLink, address instructorAddress) public{\r\n        require(!_courseExist[_courseLink], \"This link is already minted\");\r\n        require(hasRole(INSTRUCTOR_ROLE, instructorAddress), \"This address is not an instructor\");\r\n        //diplomaLinks - add\r\n        _courseLinks.push(_courseLink);\r\n        uint _id = _courseLinks.length; //tokenID's start from 1 because default uint256 value is 0\r\n        //Call mint of ERC721\r\n        _mint(instructorAddress, _id);\r\n        //Trace it\r\n        _courseExist[_courseLink] = true;\r\n        _givesCourses[instructorAddress].push(_id);\r\n    }\r\n    function getCourseLinks() public view returns(string[] memory courseLinks){\r\n        return _courseLinks;\r\n    }\r\n    function getGivesCourses(address instructorAddress) public view returns (uint[] memory givesCourses){\r\n        return _givesCourses[instructorAddress];\r\n    }\r\n\r\n    //TODO Contract Owner can make mistakes when minting. Token should be somewhat editable for contract owner\r\n    function transferFrom(//Only callable when minted\r\n        address from,\r\n        address to,\r\n        uint256 tokenId\r\n    ) public virtual override {\r\n        require(msg.sender == 0x0000000000000000000000000000000000000000, \"Transfer after mint is prohibited\");\r\n        super.transferFrom(from,to,tokenId);\r\n    }\r\n    function safeTransferFrom(//Only callable when minted\r\n        address from,\r\n        address to,\r\n        uint256 tokenId\r\n    ) public virtual override {\r\n        require(msg.sender == 0x0000000000000000000000000000000000000000, \"Transfer after mint is prohibited\");\r\n        super.safeTransferFrom(from,to,tokenId);\r\n    }\r\n    function safeTransferFrom(//Only callable when minted\r\n        address from,\r\n        address to,\r\n        uint256 tokenId,\r\n        bytes memory _data\r\n    ) public virtual override {\r\n        require(msg.sender == 0x0000000000000000000000000000000000000000, \"Transfer after mint is prohibited\");\r\n        super.safeTransferFrom(from, to, tokenId, _data);\r\n    }\r\n    function supportsInterface(bytes4 interfaceId) public view virtual override(ERC721, AccessControlEnumerable) returns (bool) {\r\n        return super.supportsInterface(interfaceId);\r\n    }\r\n}\r\n",
  "sourcePath": "C:\\Users\\asus\\Desktop\\Dersler\\CMPE492\\certification-project\\contracts\\Course.sol",
  "compiler": {
    "name": "solc",
    "version": "0.8.10+commit.fc410830.Emscripten.clang"
  },
  "schemaVersion": "3.4.4",
  "updatedAt": "2022-01-13T19:34:57.602Z",
  "networkType": "ethereum",
  "devdoc": {
    "kind": "dev",
    "methods": {
      "approve(address,uint256)": {
        "details": "See {IERC721-approve}."
      },
      "balanceOf(address)": {
        "details": "See {IERC721-balanceOf}."
      },
      "getApproved(uint256)": {
        "details": "See {IERC721-getApproved}."
      },
      "getRoleAdmin(bytes32)": {
        "details": "Returns the admin role that controls `role`. See {grantRole} and {revokeRole}. To change a role's admin, use {_setRoleAdmin}."
      },
      "getRoleMember(bytes32,uint256)": {
        "details": "Returns one of the accounts that have `role`. `index` must be a value between 0 and {getRoleMemberCount}, non-inclusive. Role bearers are not sorted in any particular way, and their ordering may change at any point. WARNING: When using {getRoleMember} and {getRoleMemberCount}, make sure you perform all queries on the same block. See the following https://forum.openzeppelin.com/t/iterating-over-elements-on-enumerableset-in-openzeppelin-contracts/2296[forum post] for more information."
      },
      "getRoleMemberCount(bytes32)": {
        "details": "Returns the number of accounts that have `role`. Can be used together with {getRoleMember} to enumerate all bearers of a role."
      },
      "grantRole(bytes32,address)": {
        "details": "Grants `role` to `account`. If `account` had not been already granted `role`, emits a {RoleGranted} event. Requirements: - the caller must have ``role``'s admin role."
      },
      "hasRole(bytes32,address)": {
        "details": "Returns `true` if `account` has been granted `role`."
      },
      "isApprovedForAll(address,address)": {
        "details": "See {IERC721-isApprovedForAll}."
      },
      "name()": {
        "details": "See {IERC721Metadata-name}."
      },
      "ownerOf(uint256)": {
        "details": "See {IERC721-ownerOf}."
      },
      "renounceRole(bytes32,address)": {
        "details": "Revokes `role` from the calling account. Roles are often managed via {grantRole} and {revokeRole}: this function's purpose is to provide a mechanism for accounts to lose their privileges if they are compromised (such as when a trusted device is misplaced). If the calling account had been revoked `role`, emits a {RoleRevoked} event. Requirements: - the caller must be `account`."
      },
      "revokeRole(bytes32,address)": {
        "details": "Revokes `role` from `account`. If `account` had been granted `role`, emits a {RoleRevoked} event. Requirements: - the caller must have ``role``'s admin role."
      },
      "safeTransferFrom(address,address,uint256)": {
        "details": "See {IERC721-safeTransferFrom}."
      },
      "safeTransferFrom(address,address,uint256,bytes)": {
        "details": "See {IERC721-safeTransferFrom}."
      },
      "setApprovalForAll(address,bool)": {
        "details": "See {IERC721-setApprovalForAll}."
      },
      "symbol()": {
        "details": "See {IERC721Metadata-symbol}."
      },
      "tokenURI(uint256)": {
        "details": "See {IERC721Metadata-tokenURI}."
      },
      "transferFrom(address,address,uint256)": {
        "details": "See {IERC721-transferFrom}."
      }
    },
    "version": 1
  },
  "userdoc": {
    "kind": "user",
    "methods": {},
    "version": 1
  }
}