{
  "contractName": "Diploma",
  "abi": [
    {
      "inputs": [],
      "stateMutability": "nonpayable",
      "type": "constructor"
    },
    {
      "anonymous": false,
      "inputs": [
        {
          "indexed": true,
          "internalType": "address",
          "name": "owner",
          "type": "address"
        },
        {
          "indexed": true,
          "internalType": "address",
          "name": "approved",
          "type": "address"
        },
        {
          "indexed": true,
          "internalType": "uint256",
          "name": "tokenId",
          "type": "uint256"
        }
      ],
      "name": "Approval",
      "type": "event"
    },
    {
      "anonymous": false,
      "inputs": [
        {
          "indexed": true,
          "internalType": "address",
          "name": "owner",
          "type": "address"
        },
        {
          "indexed": true,
          "internalType": "address",
          "name": "operator",
          "type": "address"
        },
        {
          "indexed": false,
          "internalType": "bool",
          "name": "approved",
          "type": "bool"
        }
      ],
      "name": "ApprovalForAll",
      "type": "event"
    },
    {
      "anonymous": false,
      "inputs": [
        {
          "indexed": true,
          "internalType": "bytes32",
          "name": "role",
          "type": "bytes32"
        },
        {
          "indexed": true,
          "internalType": "bytes32",
          "name": "previousAdminRole",
          "type": "bytes32"
        },
        {
          "indexed": true,
          "internalType": "bytes32",
          "name": "newAdminRole",
          "type": "bytes32"
        }
      ],
      "name": "RoleAdminChanged",
      "type": "event"
    },
    {
      "anonymous": false,
      "inputs": [
        {
          "indexed": true,
          "internalType": "bytes32",
          "name": "role",
          "type": "bytes32"
        },
        {
          "indexed": true,
          "internalType": "address",
          "name": "account",
          "type": "address"
        },
        {
          "indexed": true,
          "internalType": "address",
          "name": "sender",
          "type": "address"
        }
      ],
      "name": "RoleGranted",
      "type": "event"
    },
    {
      "anonymous": false,
      "inputs": [
        {
          "indexed": true,
          "internalType": "bytes32",
          "name": "role",
          "type": "bytes32"
        },
        {
          "indexed": true,
          "internalType": "address",
          "name": "account",
          "type": "address"
        },
        {
          "indexed": true,
          "internalType": "address",
          "name": "sender",
          "type": "address"
        }
      ],
      "name": "RoleRevoked",
      "type": "event"
    },
    {
      "anonymous": false,
      "inputs": [
        {
          "indexed": true,
          "internalType": "address",
          "name": "from",
          "type": "address"
        },
        {
          "indexed": true,
          "internalType": "address",
          "name": "to",
          "type": "address"
        },
        {
          "indexed": true,
          "internalType": "uint256",
          "name": "tokenId",
          "type": "uint256"
        }
      ],
      "name": "Transfer",
      "type": "event"
    },
    {
      "inputs": [],
      "name": "DEFAULT_ADMIN_ROLE",
      "outputs": [
        {
          "internalType": "bytes32",
          "name": "",
          "type": "bytes32"
        }
      ],
      "stateMutability": "view",
      "type": "function",
      "constant": true
    },
    {
      "inputs": [],
      "name": "DEPARTMENT_ROLE",
      "outputs": [
        {
          "internalType": "bytes32",
          "name": "",
          "type": "bytes32"
        }
      ],
      "stateMutability": "view",
      "type": "function",
      "constant": true
    },
    {
      "inputs": [],
      "name": "FACULTY_ROLE",
      "outputs": [
        {
          "internalType": "bytes32",
          "name": "",
          "type": "bytes32"
        }
      ],
      "stateMutability": "view",
      "type": "function",
      "constant": true
    },
    {
      "inputs": [],
      "name": "GRADUATED_ROLE",
      "outputs": [
        {
          "internalType": "bytes32",
          "name": "",
          "type": "bytes32"
        }
      ],
      "stateMutability": "view",
      "type": "function",
      "constant": true
    },
    {
      "inputs": [],
      "name": "INSTRUCTOR_ROLE",
      "outputs": [
        {
          "internalType": "bytes32",
          "name": "",
          "type": "bytes32"
        }
      ],
      "stateMutability": "view",
      "type": "function",
      "constant": true
    },
    {
      "inputs": [],
      "name": "RECTOR_ROLE",
      "outputs": [
        {
          "internalType": "bytes32",
          "name": "",
          "type": "bytes32"
        }
      ],
      "stateMutability": "view",
      "type": "function",
      "constant": true
    },
    {
      "inputs": [],
      "name": "STUDENT_ROLE",
      "outputs": [
        {
          "internalType": "bytes32",
          "name": "",
          "type": "bytes32"
        }
      ],
      "stateMutability": "view",
      "type": "function",
      "constant": true
    },
    {
      "inputs": [
        {
          "internalType": "address",
          "name": "to",
          "type": "address"
        },
        {
          "internalType": "uint256",
          "name": "tokenId",
          "type": "uint256"
        }
      ],
      "name": "approve",
      "outputs": [],
      "stateMutability": "nonpayable",
      "type": "function"
    },
    {
      "inputs": [
        {
          "internalType": "address",
          "name": "owner",
          "type": "address"
        }
      ],
      "name": "balanceOf",
      "outputs": [
        {
          "internalType": "uint256",
          "name": "",
          "type": "uint256"
        }
      ],
      "stateMutability": "view",
      "type": "function",
      "constant": true
    },
    {
      "inputs": [
        {
          "internalType": "uint256",
          "name": "tokenId",
          "type": "uint256"
        }
      ],
      "name": "getApproved",
      "outputs": [
        {
          "internalType": "address",
          "name": "",
          "type": "address"
        }
      ],
      "stateMutability": "view",
      "type": "function",
      "constant": true
    },
    {
      "inputs": [
        {
          "internalType": "bytes32",
          "name": "role",
          "type": "bytes32"
        }
      ],
      "name": "getRoleAdmin",
      "outputs": [
        {
          "internalType": "bytes32",
          "name": "",
          "type": "bytes32"
        }
      ],
      "stateMutability": "view",
      "type": "function",
      "constant": true
    },
    {
      "inputs": [
        {
          "internalType": "bytes32",
          "name": "role",
          "type": "bytes32"
        },
        {
          "internalType": "uint256",
          "name": "index",
          "type": "uint256"
        }
      ],
      "name": "getRoleMember",
      "outputs": [
        {
          "internalType": "address",
          "name": "",
          "type": "address"
        }
      ],
      "stateMutability": "view",
      "type": "function",
      "constant": true
    },
    {
      "inputs": [
        {
          "internalType": "bytes32",
          "name": "role",
          "type": "bytes32"
        }
      ],
      "name": "getRoleMemberCount",
      "outputs": [
        {
          "internalType": "uint256",
          "name": "",
          "type": "uint256"
        }
      ],
      "stateMutability": "view",
      "type": "function",
      "constant": true
    },
    {
      "inputs": [
        {
          "internalType": "address",
          "name": "account",
          "type": "address"
        }
      ],
      "name": "grantGraduatedRole",
      "outputs": [],
      "stateMutability": "nonpayable",
      "type": "function"
    },
    {
      "inputs": [
        {
          "internalType": "address",
          "name": "account",
          "type": "address"
        }
      ],
      "name": "grantInstructorRole",
      "outputs": [],
      "stateMutability": "nonpayable",
      "type": "function"
    },
    {
      "inputs": [
        {
          "internalType": "address",
          "name": "account",
          "type": "address"
        }
      ],
      "name": "grantRectorRole",
      "outputs": [],
      "stateMutability": "nonpayable",
      "type": "function"
    },
    {
      "inputs": [
        {
          "internalType": "bytes32",
          "name": "role",
          "type": "bytes32"
        },
        {
          "internalType": "address",
          "name": "account",
          "type": "address"
        }
      ],
      "name": "grantRole",
      "outputs": [],
      "stateMutability": "nonpayable",
      "type": "function"
    },
    {
      "inputs": [
        {
          "internalType": "address",
          "name": "account",
          "type": "address"
        }
      ],
      "name": "grantStudentRole",
      "outputs": [],
      "stateMutability": "nonpayable",
      "type": "function"
    },
    {
      "inputs": [
        {
          "internalType": "address",
          "name": "account",
          "type": "address"
        }
      ],
      "name": "hasDepartmentRole",
      "outputs": [
        {
          "internalType": "bool",
          "name": "",
          "type": "bool"
        }
      ],
      "stateMutability": "view",
      "type": "function",
      "constant": true
    },
    {
      "inputs": [
        {
          "internalType": "address",
          "name": "account",
          "type": "address"
        }
      ],
      "name": "hasFacultyRole",
      "outputs": [
        {
          "internalType": "bool",
          "name": "",
          "type": "bool"
        }
      ],
      "stateMutability": "view",
      "type": "function",
      "constant": true
    },
    {
      "inputs": [
        {
          "internalType": "address",
          "name": "account",
          "type": "address"
        }
      ],
      "name": "hasGraduatedRole",
      "outputs": [
        {
          "internalType": "bool",
          "name": "",
          "type": "bool"
        }
      ],
      "stateMutability": "view",
      "type": "function",
      "constant": true
    },
    {
      "inputs": [
        {
          "internalType": "address",
          "name": "account",
          "type": "address"
        }
      ],
      "name": "hasInstructorRole",
      "outputs": [
        {
          "internalType": "bool",
          "name": "",
          "type": "bool"
        }
      ],
      "stateMutability": "view",
      "type": "function",
      "constant": true
    },
    {
      "inputs": [
        {
          "internalType": "address",
          "name": "account",
          "type": "address"
        }
      ],
      "name": "hasRectorRole",
      "outputs": [
        {
          "internalType": "bool",
          "name": "",
          "type": "bool"
        }
      ],
      "stateMutability": "view",
      "type": "function",
      "constant": true
    },
    {
      "inputs": [
        {
          "internalType": "bytes32",
          "name": "role",
          "type": "bytes32"
        },
        {
          "internalType": "address",
          "name": "account",
          "type": "address"
        }
      ],
      "name": "hasRole",
      "outputs": [
        {
          "internalType": "bool",
          "name": "",
          "type": "bool"
        }
      ],
      "stateMutability": "view",
      "type": "function",
      "constant": true
    },
    {
      "inputs": [
        {
          "internalType": "address",
          "name": "account",
          "type": "address"
        }
      ],
      "name": "hasStudentRole",
      "outputs": [
        {
          "internalType": "bool",
          "name": "",
          "type": "bool"
        }
      ],
      "stateMutability": "view",
      "type": "function",
      "constant": true
    },
    {
      "inputs": [
        {
          "internalType": "address",
          "name": "owner",
          "type": "address"
        },
        {
          "internalType": "address",
          "name": "operator",
          "type": "address"
        }
      ],
      "name": "isApprovedForAll",
      "outputs": [
        {
          "internalType": "bool",
          "name": "",
          "type": "bool"
        }
      ],
      "stateMutability": "view",
      "type": "function",
      "constant": true
    },
    {
      "inputs": [],
      "name": "name",
      "outputs": [
        {
          "internalType": "string",
          "name": "",
          "type": "string"
        }
      ],
      "stateMutability": "view",
      "type": "function",
      "constant": true
    },
    {
      "inputs": [
        {
          "internalType": "uint256",
          "name": "tokenId",
          "type": "uint256"
        }
      ],
      "name": "ownerOf",
      "outputs": [
        {
          "internalType": "address",
          "name": "",
          "type": "address"
        }
      ],
      "stateMutability": "view",
      "type": "function",
      "constant": true
    },
    {
      "inputs": [
        {
          "internalType": "bytes32",
          "name": "role",
          "type": "bytes32"
        },
        {
          "internalType": "address",
          "name": "account",
          "type": "address"
        }
      ],
      "name": "renounceRole",
      "outputs": [],
      "stateMutability": "nonpayable",
      "type": "function"
    },
    {
      "inputs": [
        {
          "internalType": "address",
          "name": "account",
          "type": "address"
        }
      ],
      "name": "revokeInstructorRole",
      "outputs": [],
      "stateMutability": "nonpayable",
      "type": "function"
    },
    {
      "inputs": [
        {
          "internalType": "bytes32",
          "name": "role",
          "type": "bytes32"
        },
        {
          "internalType": "address",
          "name": "account",
          "type": "address"
        }
      ],
      "name": "revokeRole",
      "outputs": [],
      "stateMutability": "nonpayable",
      "type": "function"
    },
    {
      "inputs": [
        {
          "internalType": "address",
          "name": "account",
          "type": "address"
        }
      ],
      "name": "revokeStudentRole",
      "outputs": [],
      "stateMutability": "nonpayable",
      "type": "function"
    },
    {
      "inputs": [
        {
          "internalType": "address",
          "name": "operator",
          "type": "address"
        },
        {
          "internalType": "bool",
          "name": "approved",
          "type": "bool"
        }
      ],
      "name": "setApprovalForAll",
      "outputs": [],
      "stateMutability": "nonpayable",
      "type": "function"
    },
    {
      "inputs": [],
      "name": "symbol",
      "outputs": [
        {
          "internalType": "string",
          "name": "",
          "type": "string"
        }
      ],
      "stateMutability": "view",
      "type": "function",
      "constant": true
    },
    {
      "inputs": [
        {
          "internalType": "uint256",
          "name": "tokenId",
          "type": "uint256"
        }
      ],
      "name": "tokenURI",
      "outputs": [
        {
          "internalType": "string",
          "name": "",
          "type": "string"
        }
      ],
      "stateMutability": "view",
      "type": "function",
      "constant": true
    },
    {
      "inputs": [
        {
          "internalType": "string",
          "name": "_diplomaLink",
          "type": "string"
        },
        {
          "internalType": "address",
          "name": "graduatedAddress",
          "type": "address"
        }
      ],
      "name": "mint",
      "outputs": [],
      "stateMutability": "nonpayable",
      "type": "function"
    },
    {
      "inputs": [],
      "name": "getDiplomaLinks",
      "outputs": [
        {
          "internalType": "string[]",
          "name": "diplomaLinks",
          "type": "string[]"
        }
      ],
      "stateMutability": "view",
      "type": "function",
      "constant": true
    },
    {
      "inputs": [
        {
          "internalType": "address",
          "name": "from",
          "type": "address"
        },
        {
          "internalType": "address",
          "name": "to",
          "type": "address"
        },
        {
          "internalType": "uint256",
          "name": "tokenId",
          "type": "uint256"
        }
      ],
      "name": "transferFrom",
      "outputs": [],
      "stateMutability": "nonpayable",
      "type": "function"
    },
    {
      "inputs": [
        {
          "internalType": "address",
          "name": "from",
          "type": "address"
        },
        {
          "internalType": "address",
          "name": "to",
          "type": "address"
        },
        {
          "internalType": "uint256",
          "name": "tokenId",
          "type": "uint256"
        }
      ],
      "name": "safeTransferFrom",
      "outputs": [],
      "stateMutability": "nonpayable",
      "type": "function"
    },
    {
      "inputs": [
        {
          "internalType": "address",
          "name": "from",
          "type": "address"
        },
        {
          "internalType": "address",
          "name": "to",
          "type": "address"
        },
        {
          "internalType": "uint256",
          "name": "tokenId",
          "type": "uint256"
        },
        {
          "internalType": "bytes",
          "name": "_data",
          "type": "bytes"
        }
      ],
      "name": "safeTransferFrom",
      "outputs": [],
      "stateMutability": "nonpayable",
      "type": "function"
    },
    {
      "inputs": [
        {
          "internalType": "bytes4",
          "name": "interfaceId",
          "type": "bytes4"
        }
      ],
      "name": "supportsInterface",
      "outputs": [
        {
          "internalType": "bool",
          "name": "",
          "type": "bool"
        }
      ],
      "stateMutability": "view",
      "type": "function",
      "constant": true
    }
  ],
  "bytecode": "0x60806040523480156200001157600080fd5b506040518060400160405280600781526020017f4469706c6f6d61000000000000000000000000000000000000000000000000008152506040518060400160405280600481526020017f44504c4d0000000000000000000000000000000000000000000000000000000081525081600090805190602001906200009692919062000397565b508060019080519060200190620000af92919062000397565b505050620000c76000801b33620000ff60201b60201c565b620000f97f5f1d1e303f9c0a1801dd708bdc4239781d66c88ca6cb941c5769ba09b5c1b28533620000ff60201b60201c565b620004ac565b6200011182826200011560201b60201c565b5050565b6200012c82826200015d60201b620019611760201c565b6200015881600760008581526020019081526020016000206200024f60201b62001a421790919060201c565b505050565b6200016f82826200028760201b60201c565b6200024b5760016006600084815260200190815260200160002060000160008373ffffffffffffffffffffffffffffffffffffffff1673ffffffffffffffffffffffffffffffffffffffff16815260200190815260200160002060006101000a81548160ff021916908315150217905550620001f0620002f260201b60201c565b73ffffffffffffffffffffffffffffffffffffffff168173ffffffffffffffffffffffffffffffffffffffff16837f2f8788117e7eff1d82e926ec794901d17c78024a50270940304540a733656f0d60405160405180910390a45b5050565b60006200027f836000018373ffffffffffffffffffffffffffffffffffffffff1660001b620002fa60201b60201c565b905092915050565b60006006600084815260200190815260200160002060000160008373ffffffffffffffffffffffffffffffffffffffff1673ffffffffffffffffffffffffffffffffffffffff16815260200190815260200160002060009054906101000a900460ff16905092915050565b600033905090565b60006200030e83836200037460201b60201c565b620003695782600001829080600181540180825580915050600190039060005260206000200160009091909190915055826000018054905083600101600084815260200190815260200160002081905550600190506200036e565b600090505b92915050565b600080836001016000848152602001908152602001600020541415905092915050565b828054620003a59062000476565b90600052602060002090601f016020900481019282620003c9576000855562000415565b82601f10620003e457805160ff191683800117855562000415565b8280016001018555821562000415579182015b8281111562000414578251825591602001919060010190620003f7565b5b50905062000424919062000428565b5090565b5b808211156200044357600081600090555060010162000429565b5090565b7f4e487b7100000000000000000000000000000000000000000000000000000000600052602260045260246000fd5b600060028204905060018216806200048f57607f821691505b60208210811415620004a657620004a562000447565b5b50919050565b61486980620004bc6000396000f3fe608060405234801561001057600080fd5b50600436106102535760003560e01c806386f8e92c11610146578063ad7be93a116100c3578063d547741f11610087578063d547741f1461072e578063e17f6b2c1461074a578063e78af7c51461077a578063e985e9c5146107aa578063f7be43fb146107da578063fc3ba6b4146107f857610253565b8063ad7be93a14610678578063b88d4fde14610696578063c87b56dd146106b2578063c94d10ad146106e2578063ca15c873146106fe57610253565b806395d89b411161010a57806395d89b41146105d25780639822a599146105f0578063996dc02214610620578063a217fddf1461063e578063a22cb4651461065c57610253565b806386f8e92c1461051c5780638bcf979c146105385780638df6674a146105565780639010d07c1461057257806391d14854146105a257610253565b806332b3c846116101d45780636352211e116101985780636352211e146104505780636fe3ceb81461048057806370a082311461049e5780637168c27d146104ce5780637ab08b80146104fe57610253565b806332b3c846146103c457806336568abe146103e057806342842e0e146103fc5780635ea07b1c146104185780635f1d514e1461043457610253565b806323b872dd1161021b57806323b872dd1461030e578063248a9ca31461032a57806324d42a371461035a5780632be7dc44146103785780632f2ff15d146103a857610253565b806301ffc9a71461025857806306fdde0314610288578063081812fc146102a6578063095ea7b3146102d65780631c351a9d146102f2575b600080fd5b610272600480360381019061026d919061301e565b610828565b60405161027f9190613066565b60405180910390f35b61029061083a565b60405161029d919061311a565b60405180910390f35b6102c060048036038101906102bb9190613172565b6108cc565b6040516102cd91906131e0565b60405180910390f35b6102f060048036038101906102eb9190613227565b610951565b005b61030c6004803603810190610307919061339c565b610a69565b005b610328600480360381019061032391906133f8565b610d17565b005b610344600480360381019061033f9190613481565b610d96565b60405161035191906134bd565b60405180910390f35b610362610db6565b60405161036f91906134bd565b60405180910390f35b610392600480360381019061038d91906134d8565b610dda565b60405161039f9190613066565b60405180910390f35b6103c260048036038101906103bd9190613505565b610e0d565b005b6103de60048036038101906103d991906134d8565b610e36565b005b6103fa60048036038101906103f59190613505565b610e96565b005b610416600480360381019061041191906133f8565b610f19565b005b610432600480360381019061042d91906134d8565b610f98565b005b61044e600480360381019061044991906134d8565b611055565b005b61046a60048036038101906104659190613172565b6110b5565b60405161047791906131e0565b60405180910390f35b610488611167565b60405161049591906134bd565b60405180910390f35b6104b860048036038101906104b391906134d8565b61118b565b6040516104c59190613554565b60405180910390f35b6104e860048036038101906104e391906134d8565b611243565b6040516104f59190613066565b60405180910390f35b610506611276565b604051610513919061367b565b60405180910390f35b610536600480360381019061053191906134d8565b61134f565b005b6105406113af565b60405161054d91906134bd565b60405180910390f35b610570600480360381019061056b91906134d8565b6113d3565b005b61058c6004803603810190610587919061369d565b611477565b60405161059991906131e0565b60405180910390f35b6105bc60048036038101906105b79190613505565b6114a6565b6040516105c99190613066565b60405180910390f35b6105da611511565b6040516105e7919061311a565b60405180910390f35b61060a600480360381019061060591906134d8565b6115a3565b6040516106179190613066565b60405180910390f35b6106286115d6565b60405161063591906134bd565b60405180910390f35b6106466115fa565b60405161065391906134bd565b60405180910390f35b61067660048036038101906106719190613709565b611601565b005b610680611617565b60405161068d91906134bd565b60405180910390f35b6106b060048036038101906106ab91906137ea565b61163b565b005b6106cc60048036038101906106c79190613172565b6116bc565b6040516106d9919061311a565b60405180910390f35b6106fc60048036038101906106f791906134d8565b611763565b005b61071860048036038101906107139190613481565b6117c3565b6040516107259190613554565b60405180910390f35b61074860048036038101906107439190613505565b6117e7565b005b610764600480360381019061075f91906134d8565b611810565b6040516107719190613066565b60405180910390f35b610794600480360381019061078f91906134d8565b611843565b6040516107a19190613066565b60405180910390f35b6107c460048036038101906107bf919061386d565b611876565b6040516107d19190613066565b60405180910390f35b6107e261190a565b6040516107ef91906134bd565b60405180910390f35b610812600480360381019061080d91906134d8565b61192e565b60405161081f9190613066565b60405180910390f35b600061083382611a72565b9050919050565b606060008054610849906138dc565b80601f0160208091040260200160405190810160405280929190818152602001828054610875906138dc565b80156108c25780601f10610897576101008083540402835291602001916108c2565b820191906000526020600020905b8154815290600101906020018083116108a557829003601f168201915b5050505050905090565b60006108d782611aec565b610916576040517f08c379a000000000000000000000000000000000000000000000000000000000815260040161090d90613980565b60405180910390fd5b6004600083815260200190815260200160002060009054906101000a900473ffffffffffffffffffffffffffffffffffffffff169050919050565b600061095c826110b5565b90508073ffffffffffffffffffffffffffffffffffffffff168373ffffffffffffffffffffffffffffffffffffffff1614156109cd576040517f08c379a00000000000000000000000000000000000000000000000000000000081526004016109c490613a12565b60405180910390fd5b8073ffffffffffffffffffffffffffffffffffffffff166109ec611b58565b73ffffffffffffffffffffffffffffffffffffffff161480610a1b5750610a1a81610a15611b58565b611876565b5b610a5a576040517f08c379a0000000000000000000000000000000000000000000000000000000008152600401610a5190613aa4565b60405180910390fd5b610a648383611b60565b505050565b7f5f1d1e303f9c0a1801dd708bdc4239781d66c88ca6cb941c5769ba09b5c1b285610a9b81610a96611b58565b611c19565b600983604051610aab9190613b00565b908152602001604051809103902060009054906101000a900460ff1615610b07576040517f08c379a0000000000000000000000000000000000000000000000000000000008152600401610afe90613b63565b60405180910390fd5b6000600860008473ffffffffffffffffffffffffffffffffffffffff1673ffffffffffffffffffffffffffffffffffffffff1681526020019081526020016000205414610b89576040517f08c379a0000000000000000000000000000000000000000000000000000000008152600401610b8090613bf5565b60405180910390fd5b610bb37f36a5c4aaacb6b388bbd448bf11096b7dafc5652bcc9046084fd0e95b1fb0b2cc836114a6565b610bf2576040517f08c379a0000000000000000000000000000000000000000000000000000000008152600401610be990613c61565b60405180910390fd5b610c1c7f36a5c4aaacb6b388bbd448bf11096b7dafc5652bcc9046084fd0e95b1fb0b2cc836117e7565b610c467f4758f7d70d6088cbfad5c79861ac6457ba2af02adf5ea419e97879ae24459cb683610e0d565b600a83908060018154018082558091505060019003906000526020600020016000909190919091509080519060200190610c81929190612f0f565b506000600a805490509050610c968382611cb6565b6001600985604051610ca89190613b00565b908152602001604051809103902060006101000a81548160ff02191690831515021790555080600860008573ffffffffffffffffffffffffffffffffffffffff1673ffffffffffffffffffffffffffffffffffffffff1681526020019081526020016000208190555050505050565b600073ffffffffffffffffffffffffffffffffffffffff163373ffffffffffffffffffffffffffffffffffffffff1614610d86576040517f08c379a0000000000000000000000000000000000000000000000000000000008152600401610d7d90613cf3565b60405180910390fd5b610d91838383611e84565b505050565b600060066000838152602001908152602001600020600101549050919050565b7f5f1d1e303f9c0a1801dd708bdc4239781d66c88ca6cb941c5769ba09b5c1b28581565b6000610e067f5f1d1e303f9c0a1801dd708bdc4239781d66c88ca6cb941c5769ba09b5c1b285836114a6565b9050919050565b610e1682610d96565b610e2781610e22611b58565b611c19565b610e318383611ee4565b505050565b7f5f1d1e303f9c0a1801dd708bdc4239781d66c88ca6cb941c5769ba09b5c1b285610e6881610e63611b58565b611c19565b610e927f36a5c4aaacb6b388bbd448bf11096b7dafc5652bcc9046084fd0e95b1fb0b2cc836117e7565b5050565b610e9e611b58565b73ffffffffffffffffffffffffffffffffffffffff168173ffffffffffffffffffffffffffffffffffffffff1614610f0b576040517f08c379a0000000000000000000000000000000000000000000000000000000008152600401610f0290613d85565b60405180910390fd5b610f158282611f18565b5050565b600073ffffffffffffffffffffffffffffffffffffffff163373ffffffffffffffffffffffffffffffffffffffff1614610f88576040517f08c379a0000000000000000000000000000000000000000000000000000000008152600401610f7f90613cf3565b60405180910390fd5b610f93838383611f4c565b505050565b7f5f1d1e303f9c0a1801dd708bdc4239781d66c88ca6cb941c5769ba09b5c1b285610fca81610fc5611b58565b611c19565b610ff47f36a5c4aaacb6b388bbd448bf11096b7dafc5652bcc9046084fd0e95b1fb0b2cc836114a6565b610ffd57600080fd5b6110277f36a5c4aaacb6b388bbd448bf11096b7dafc5652bcc9046084fd0e95b1fb0b2cc836117e7565b6110517f4758f7d70d6088cbfad5c79861ac6457ba2af02adf5ea419e97879ae24459cb683610e0d565b5050565b7f5f1d1e303f9c0a1801dd708bdc4239781d66c88ca6cb941c5769ba09b5c1b28561108781611082611b58565b611c19565b6110b17fae4a0595970935aa5495afbbb72e5f1f6ff1062766b4a3028c0c9b7d5cf7e34583610e0d565b5050565b6000806002600084815260200190815260200160002060009054906101000a900473ffffffffffffffffffffffffffffffffffffffff169050600073ffffffffffffffffffffffffffffffffffffffff168173ffffffffffffffffffffffffffffffffffffffff16141561115e576040517f08c379a000000000000000000000000000000000000000000000000000000000815260040161115590613e17565b60405180910390fd5b80915050919050565b7ff3f9cfff7b46f415da5a492b1718971da203f87c6aae9299e7b408eb83ef8bee81565b60008073ffffffffffffffffffffffffffffffffffffffff168273ffffffffffffffffffffffffffffffffffffffff1614156111fc576040517f08c379a00000000000000000000000000000000000000000000000000000000081526004016111f390613ea9565b60405180910390fd5b600360008373ffffffffffffffffffffffffffffffffffffffff1673ffffffffffffffffffffffffffffffffffffffff168152602001908152602001600020549050919050565b600061126f7f4758f7d70d6088cbfad5c79861ac6457ba2af02adf5ea419e97879ae24459cb6836114a6565b9050919050565b6060600a805480602002602001604051908101604052809291908181526020016000905b828210156113465783829060005260206000200180546112b9906138dc565b80601f01602080910402602001604051908101604052809291908181526020018280546112e5906138dc565b80156113325780601f1061130757610100808354040283529160200191611332565b820191906000526020600020905b81548152906001019060200180831161131557829003601f168201915b50505050508152602001906001019061129a565b50505050905090565b7f5f1d1e303f9c0a1801dd708bdc4239781d66c88ca6cb941c5769ba09b5c1b2856113818161137c611b58565b611c19565b6113ab7fae4a0595970935aa5495afbbb72e5f1f6ff1062766b4a3028c0c9b7d5cf7e345836117e7565b5050565b7fae4a0595970935aa5495afbbb72e5f1f6ff1062766b4a3028c0c9b7d5cf7e34581565b7f5f1d1e303f9c0a1801dd708bdc4239781d66c88ca6cb941c5769ba09b5c1b28561140581611400611b58565b611c19565b61142f7f5f1d1e303f9c0a1801dd708bdc4239781d66c88ca6cb941c5769ba09b5c1b28583610e0d565b61143c6000801b83610e0d565b6114496000801b33610e96565b6114737f5f1d1e303f9c0a1801dd708bdc4239781d66c88ca6cb941c5769ba09b5c1b28533610e96565b5050565b600061149e8260076000868152602001908152602001600020611f6c90919063ffffffff16565b905092915050565b60006006600084815260200190815260200160002060000160008373ffffffffffffffffffffffffffffffffffffffff1673ffffffffffffffffffffffffffffffffffffffff16815260200190815260200160002060009054906101000a900460ff16905092915050565b606060018054611520906138dc565b80601f016020809104026020016040519081016040528092919081815260200182805461154c906138dc565b80156115995780601f1061156e57610100808354040283529160200191611599565b820191906000526020600020905b81548152906001019060200180831161157c57829003601f168201915b5050505050905090565b60006115cf7fae4a0595970935aa5495afbbb72e5f1f6ff1062766b4a3028c0c9b7d5cf7e345836114a6565b9050919050565b7fe7837d04f36ce0b2f3cc662bf1b2b632a7fbd12ae95199e8bd3dcfbcc440b66b81565b6000801b81565b61161361160c611b58565b8383611f86565b5050565b7f4758f7d70d6088cbfad5c79861ac6457ba2af02adf5ea419e97879ae24459cb681565b600073ffffffffffffffffffffffffffffffffffffffff163373ffffffffffffffffffffffffffffffffffffffff16146116aa576040517f08c379a00000000000000000000000000000000000000000000000000000000081526004016116a190613cf3565b60405180910390fd5b6116b6848484846120f3565b50505050565b60606116c782611aec565b611706576040517f08c379a00000000000000000000000000000000000000000000000000000000081526004016116fd90613f3b565b60405180910390fd5b6000611710612155565b90506000815111611730576040518060200160405280600081525061175b565b8061173a8461216c565b60405160200161174b929190613f5b565b6040516020818303038152906040525b915050919050565b7f5f1d1e303f9c0a1801dd708bdc4239781d66c88ca6cb941c5769ba09b5c1b28561179581611790611b58565b611c19565b6117bf7f36a5c4aaacb6b388bbd448bf11096b7dafc5652bcc9046084fd0e95b1fb0b2cc83610e0d565b5050565b60006117e0600760008481526020019081526020016000206122cd565b9050919050565b6117f082610d96565b611801816117fc611b58565b611c19565b61180b8383611f18565b505050565b600061183c7fe7837d04f36ce0b2f3cc662bf1b2b632a7fbd12ae95199e8bd3dcfbcc440b66b836114a6565b9050919050565b600061186f7ff3f9cfff7b46f415da5a492b1718971da203f87c6aae9299e7b408eb83ef8bee836114a6565b9050919050565b6000600560008473ffffffffffffffffffffffffffffffffffffffff1673ffffffffffffffffffffffffffffffffffffffff16815260200190815260200160002060008373ffffffffffffffffffffffffffffffffffffffff1673ffffffffffffffffffffffffffffffffffffffff16815260200190815260200160002060009054906101000a900460ff16905092915050565b7f36a5c4aaacb6b388bbd448bf11096b7dafc5652bcc9046084fd0e95b1fb0b2cc81565b600061195a7f36a5c4aaacb6b388bbd448bf11096b7dafc5652bcc9046084fd0e95b1fb0b2cc836114a6565b9050919050565b61196b82826114a6565b611a3e5760016006600084815260200190815260200160002060000160008373ffffffffffffffffffffffffffffffffffffffff1673ffffffffffffffffffffffffffffffffffffffff16815260200190815260200160002060006101000a81548160ff0219169083151502179055506119e3611b58565b73ffffffffffffffffffffffffffffffffffffffff168173ffffffffffffffffffffffffffffffffffffffff16837f2f8788117e7eff1d82e926ec794901d17c78024a50270940304540a733656f0d60405160405180910390a45b5050565b6000611a6a836000018373ffffffffffffffffffffffffffffffffffffffff1660001b6122e2565b905092915050565b60007f5a05180f000000000000000000000000000000000000000000000000000000007bffffffffffffffffffffffffffffffffffffffffffffffffffffffff1916827bffffffffffffffffffffffffffffffffffffffffffffffffffffffff19161480611ae55750611ae482612352565b5b9050919050565b60008073ffffffffffffffffffffffffffffffffffffffff166002600084815260200190815260200160002060009054906101000a900473ffffffffffffffffffffffffffffffffffffffff1673ffffffffffffffffffffffffffffffffffffffff1614159050919050565b600033905090565b816004600083815260200190815260200160002060006101000a81548173ffffffffffffffffffffffffffffffffffffffff021916908373ffffffffffffffffffffffffffffffffffffffff160217905550808273ffffffffffffffffffffffffffffffffffffffff16611bd3836110b5565b73ffffffffffffffffffffffffffffffffffffffff167f8c5be1e5ebec7d5bd14f71427d1e84f3dd0314c0f7b2291e5b200ac8c7c3b92560405160405180910390a45050565b611c2382826114a6565b611cb257611c488173ffffffffffffffffffffffffffffffffffffffff1660146123cc565b611c568360001c60206123cc565b604051602001611c67929190614017565b6040516020818303038152906040526040517f08c379a0000000000000000000000000000000000000000000000000000000008152600401611ca9919061311a565b60405180910390fd5b5050565b600073ffffffffffffffffffffffffffffffffffffffff168273ffffffffffffffffffffffffffffffffffffffff161415611d26576040517f08c379a0000000000000000000000000000000000000000000000000000000008152600401611d1d9061409d565b60405180910390fd5b611d2f81611aec565b15611d6f576040517f08c379a0000000000000000000000000000000000000000000000000000000008152600401611d6690614109565b60405180910390fd5b611d7b60008383612608565b6001600360008473ffffffffffffffffffffffffffffffffffffffff1673ffffffffffffffffffffffffffffffffffffffff1681526020019081526020016000206000828254611dcb9190614158565b92505081905550816002600083815260200190815260200160002060006101000a81548173ffffffffffffffffffffffffffffffffffffffff021916908373ffffffffffffffffffffffffffffffffffffffff160217905550808273ffffffffffffffffffffffffffffffffffffffff16600073ffffffffffffffffffffffffffffffffffffffff167fddf252ad1be2c89b69c2b068fc378daa952ba7f163c4a11628f55a4df523b3ef60405160405180910390a45050565b611e95611e8f611b58565b8261260d565b611ed4576040517f08c379a0000000000000000000000000000000000000000000000000000000008152600401611ecb90614220565b60405180910390fd5b611edf8383836126eb565b505050565b611eee8282611961565b611f138160076000858152602001908152602001600020611a4290919063ffffffff16565b505050565b611f228282612947565b611f478160076000858152602001908152602001600020612a2990919063ffffffff16565b505050565b611f678383836040518060200160405280600081525061163b565b505050565b6000611f7b8360000183612a59565b60001c905092915050565b8173ffffffffffffffffffffffffffffffffffffffff168373ffffffffffffffffffffffffffffffffffffffff161415611ff5576040517f08c379a0000000000000000000000000000000000000000000000000000000008152600401611fec9061428c565b60405180910390fd5b80600560008573ffffffffffffffffffffffffffffffffffffffff1673ffffffffffffffffffffffffffffffffffffffff16815260200190815260200160002060008473ffffffffffffffffffffffffffffffffffffffff1673ffffffffffffffffffffffffffffffffffffffff16815260200190815260200160002060006101000a81548160ff0219169083151502179055508173ffffffffffffffffffffffffffffffffffffffff168373ffffffffffffffffffffffffffffffffffffffff167f17307eab39ab6107e8899845ad3d59bd9653f200f220920489ca2b5937696c31836040516120e69190613066565b60405180910390a3505050565b6121046120fe611b58565b8361260d565b612143576040517f08c379a000000000000000000000000000000000000000000000000000000000815260040161213a90614220565b60405180910390fd5b61214f84848484612a84565b50505050565b606060405180602001604052806000815250905090565b606060008214156121b4576040518060400160405280600181526020017f300000000000000000000000000000000000000000000000000000000000000081525090506122c8565b600082905060005b600082146121e65780806121cf906142ac565b915050600a826121df9190614324565b91506121bc565b60008167ffffffffffffffff81111561220257612201613271565b5b6040519080825280601f01601f1916602001820160405280156122345781602001600182028036833780820191505090505b5090505b600085146122c15760018261224d9190614355565b9150600a8561225c9190614389565b60306122689190614158565b60f81b81838151811061227e5761227d6143ba565b5b60200101907effffffffffffffffffffffffffffffffffffffffffffffffffffffffffffff1916908160001a905350600a856122ba9190614324565b9450612238565b8093505050505b919050565b60006122db82600001612ae0565b9050919050565b60006122ee8383612af1565b61234757826000018290806001815401808255809150506001900390600052602060002001600090919091909150558260000180549050836001016000848152602001908152602001600020819055506001905061234c565b600090505b92915050565b60007f7965db0b000000000000000000000000000000000000000000000000000000007bffffffffffffffffffffffffffffffffffffffffffffffffffffffff1916827bffffffffffffffffffffffffffffffffffffffffffffffffffffffff191614806123c557506123c482612b14565b5b9050919050565b6060600060028360026123df91906143e9565b6123e99190614158565b67ffffffffffffffff81111561240257612401613271565b5b6040519080825280601f01601f1916602001820160405280156124345781602001600182028036833780820191505090505b5090507f30000000000000000000000000000000000000000000000000000000000000008160008151811061246c5761246b6143ba565b5b60200101907effffffffffffffffffffffffffffffffffffffffffffffffffffffffffffff1916908160001a9053507f7800000000000000000000000000000000000000000000000000000000000000816001815181106124d0576124cf6143ba565b5b60200101907effffffffffffffffffffffffffffffffffffffffffffffffffffffffffffff1916908160001a9053506000600184600261251091906143e9565b61251a9190614158565b90505b60018111156125ba577f3031323334353637383961626364656600000000000000000000000000000000600f86166010811061255c5761255b6143ba565b5b1a60f81b828281518110612573576125726143ba565b5b60200101907effffffffffffffffffffffffffffffffffffffffffffffffffffffffffffff1916908160001a905350600485901c9450806125b390614443565b905061251d565b50600084146125fe576040517f08c379a00000000000000000000000000000000000000000000000000000000081526004016125f5906144b9565b60405180910390fd5b8091505092915050565b505050565b600061261882611aec565b612657576040517f08c379a000000000000000000000000000000000000000000000000000000000815260040161264e9061454b565b60405180910390fd5b6000612662836110b5565b90508073ffffffffffffffffffffffffffffffffffffffff168473ffffffffffffffffffffffffffffffffffffffff1614806126d157508373ffffffffffffffffffffffffffffffffffffffff166126b9846108cc565b73ffffffffffffffffffffffffffffffffffffffff16145b806126e257506126e18185611876565b5b91505092915050565b8273ffffffffffffffffffffffffffffffffffffffff1661270b826110b5565b73ffffffffffffffffffffffffffffffffffffffff1614612761576040517f08c379a0000000000000000000000000000000000000000000000000000000008152600401612758906145dd565b60405180910390fd5b600073ffffffffffffffffffffffffffffffffffffffff168273ffffffffffffffffffffffffffffffffffffffff1614156127d1576040517f08c379a00000000000000000000000000000000000000000000000000000000081526004016127c89061466f565b60405180910390fd5b6127dc838383612608565b6127e7600082611b60565b6001600360008573ffffffffffffffffffffffffffffffffffffffff1673ffffffffffffffffffffffffffffffffffffffff16815260200190815260200160002060008282546128379190614355565b925050819055506001600360008473ffffffffffffffffffffffffffffffffffffffff1673ffffffffffffffffffffffffffffffffffffffff168152602001908152602001600020600082825461288e9190614158565b92505081905550816002600083815260200190815260200160002060006101000a81548173ffffffffffffffffffffffffffffffffffffffff021916908373ffffffffffffffffffffffffffffffffffffffff160217905550808273ffffffffffffffffffffffffffffffffffffffff168473ffffffffffffffffffffffffffffffffffffffff167fddf252ad1be2c89b69c2b068fc378daa952ba7f163c4a11628f55a4df523b3ef60405160405180910390a4505050565b61295182826114a6565b15612a255760006006600084815260200190815260200160002060000160008373ffffffffffffffffffffffffffffffffffffffff1673ffffffffffffffffffffffffffffffffffffffff16815260200190815260200160002060006101000a81548160ff0219169083151502179055506129ca611b58565b73ffffffffffffffffffffffffffffffffffffffff168173ffffffffffffffffffffffffffffffffffffffff16837ff6391f5c32d9c69d2a47ea670b442974b53935d1edc7fd64eb21e047a839171b60405160405180910390a45b5050565b6000612a51836000018373ffffffffffffffffffffffffffffffffffffffff1660001b612bf6565b905092915050565b6000826000018281548110612a7157612a706143ba565b5b9060005260206000200154905092915050565b612a8f8484846126eb565b612a9b84848484612d0a565b612ada576040517f08c379a0000000000000000000000000000000000000000000000000000000008152600401612ad190614701565b60405180910390fd5b50505050565b600081600001805490509050919050565b600080836001016000848152602001908152602001600020541415905092915050565b60007f80ac58cd000000000000000000000000000000000000000000000000000000007bffffffffffffffffffffffffffffffffffffffffffffffffffffffff1916827bffffffffffffffffffffffffffffffffffffffffffffffffffffffff19161480612bdf57507f5b5e139f000000000000000000000000000000000000000000000000000000007bffffffffffffffffffffffffffffffffffffffffffffffffffffffff1916827bffffffffffffffffffffffffffffffffffffffffffffffffffffffff1916145b80612bef5750612bee82612e92565b5b9050919050565b60008083600101600084815260200190815260200160002054905060008114612cfe576000600182612c289190614355565b9050600060018660000180549050612c409190614355565b9050818114612caf576000866000018281548110612c6157612c606143ba565b5b9060005260206000200154905080876000018481548110612c8557612c846143ba565b5b90600052602060002001819055508387600101600083815260200190815260200160002081905550505b85600001805480612cc357612cc2614721565b5b600190038181906000526020600020016000905590558560010160008681526020019081526020016000206000905560019350505050612d04565b60009150505b92915050565b6000612d2b8473ffffffffffffffffffffffffffffffffffffffff16612efc565b15612e85578373ffffffffffffffffffffffffffffffffffffffff1663150b7a02612d54611b58565b8786866040518563ffffffff1660e01b8152600401612d7694939291906147a5565b6020604051808303816000875af1925050508015612db257506040513d601f19601f82011682018060405250810190612daf9190614806565b60015b612e35573d8060008114612de2576040519150601f19603f3d011682016040523d82523d6000602084013e612de7565b606091505b50600081511415612e2d576040517f08c379a0000000000000000000000000000000000000000000000000000000008152600401612e2490614701565b60405180910390fd5b805181602001fd5b63150b7a0260e01b7bffffffffffffffffffffffffffffffffffffffffffffffffffffffff1916817bffffffffffffffffffffffffffffffffffffffffffffffffffffffff191614915050612e8a565b600190505b949350505050565b60007f01ffc9a7000000000000000000000000000000000000000000000000000000007bffffffffffffffffffffffffffffffffffffffffffffffffffffffff1916827bffffffffffffffffffffffffffffffffffffffffffffffffffffffff1916149050919050565b600080823b905060008111915050919050565b828054612f1b906138dc565b90600052602060002090601f016020900481019282612f3d5760008555612f84565b82601f10612f5657805160ff1916838001178555612f84565b82800160010185558215612f84579182015b82811115612f83578251825591602001919060010190612f68565b5b509050612f919190612f95565b5090565b5b80821115612fae576000816000905550600101612f96565b5090565b6000604051905090565b600080fd5b600080fd5b60007fffffffff0000000000000000000000000000000000000000000000000000000082169050919050565b612ffb81612fc6565b811461300657600080fd5b50565b60008135905061301881612ff2565b92915050565b60006020828403121561303457613033612fbc565b5b600061304284828501613009565b91505092915050565b60008115159050919050565b6130608161304b565b82525050565b600060208201905061307b6000830184613057565b92915050565b600081519050919050565b600082825260208201905092915050565b60005b838110156130bb5780820151818401526020810190506130a0565b838111156130ca576000848401525b50505050565b6000601f19601f8301169050919050565b60006130ec82613081565b6130f6818561308c565b935061310681856020860161309d565b61310f816130d0565b840191505092915050565b6000602082019050818103600083015261313481846130e1565b905092915050565b6000819050919050565b61314f8161313c565b811461315a57600080fd5b50565b60008135905061316c81613146565b92915050565b60006020828403121561318857613187612fbc565b5b60006131968482850161315d565b91505092915050565b600073ffffffffffffffffffffffffffffffffffffffff82169050919050565b60006131ca8261319f565b9050919050565b6131da816131bf565b82525050565b60006020820190506131f560008301846131d1565b92915050565b613204816131bf565b811461320f57600080fd5b50565b600081359050613221816131fb565b92915050565b6000806040838503121561323e5761323d612fbc565b5b600061324c85828601613212565b925050602061325d8582860161315d565b9150509250929050565b600080fd5b600080fd5b7f4e487b7100000000000000000000000000000000000000000000000000000000600052604160045260246000fd5b6132a9826130d0565b810181811067ffffffffffffffff821117156132c8576132c7613271565b5b80604052505050565b60006132db612fb2565b90506132e782826132a0565b919050565b600067ffffffffffffffff82111561330757613306613271565b5b613310826130d0565b9050602081019050919050565b82818337600083830152505050565b600061333f61333a846132ec565b6132d1565b90508281526020810184848401111561335b5761335a61326c565b5b61336684828561331d565b509392505050565b600082601f83011261338357613382613267565b5b813561339384826020860161332c565b91505092915050565b600080604083850312156133b3576133b2612fbc565b5b600083013567ffffffffffffffff8111156133d1576133d0612fc1565b5b6133dd8582860161336e565b92505060206133ee85828601613212565b9150509250929050565b60008060006060848603121561341157613410612fbc565b5b600061341f86828701613212565b935050602061343086828701613212565b92505060406134418682870161315d565b9150509250925092565b6000819050919050565b61345e8161344b565b811461346957600080fd5b50565b60008135905061347b81613455565b92915050565b60006020828403121561349757613496612fbc565b5b60006134a58482850161346c565b91505092915050565b6134b78161344b565b82525050565b60006020820190506134d260008301846134ae565b92915050565b6000602082840312156134ee576134ed612fbc565b5b60006134fc84828501613212565b91505092915050565b6000806040838503121561351c5761351b612fbc565b5b600061352a8582860161346c565b925050602061353b85828601613212565b9150509250929050565b61354e8161313c565b82525050565b60006020820190506135696000830184613545565b92915050565b600081519050919050565b600082825260208201905092915050565b6000819050602082019050919050565b600082825260208201905092915050565b60006135b782613081565b6135c1818561359b565b93506135d181856020860161309d565b6135da816130d0565b840191505092915050565b60006135f183836135ac565b905092915050565b6000602082019050919050565b60006136118261356f565b61361b818561357a565b93508360208202850161362d8561358b565b8060005b85811015613669578484038952815161364a85826135e5565b9450613655836135f9565b925060208a01995050600181019050613631565b50829750879550505050505092915050565b600060208201905081810360008301526136958184613606565b905092915050565b600080604083850312156136b4576136b3612fbc565b5b60006136c28582860161346c565b92505060206136d38582860161315d565b9150509250929050565b6136e68161304b565b81146136f157600080fd5b50565b600081359050613703816136dd565b92915050565b600080604083850312156137205761371f612fbc565b5b600061372e85828601613212565b925050602061373f858286016136f4565b9150509250929050565b600067ffffffffffffffff82111561376457613763613271565b5b61376d826130d0565b9050602081019050919050565b600061378d61378884613749565b6132d1565b9050828152602081018484840111156137a9576137a861326c565b5b6137b484828561331d565b509392505050565b600082601f8301126137d1576137d0613267565b5b81356137e184826020860161377a565b91505092915050565b6000806000806080858703121561380457613803612fbc565b5b600061381287828801613212565b945050602061382387828801613212565b93505060406138348782880161315d565b925050606085013567ffffffffffffffff81111561385557613854612fc1565b5b613861878288016137bc565b91505092959194509250565b6000806040838503121561388457613883612fbc565b5b600061389285828601613212565b92505060206138a385828601613212565b9150509250929050565b7f4e487b7100000000000000000000000000000000000000000000000000000000600052602260045260246000fd5b600060028204905060018216806138f457607f821691505b60208210811415613908576139076138ad565b5b50919050565b7f4552433732313a20617070726f76656420717565727920666f72206e6f6e657860008201527f697374656e7420746f6b656e0000000000000000000000000000000000000000602082015250565b600061396a602c8361308c565b91506139758261390e565b604082019050919050565b600060208201905081810360008301526139998161395d565b9050919050565b7f4552433732313a20617070726f76616c20746f2063757272656e74206f776e6560008201527f7200000000000000000000000000000000000000000000000000000000000000602082015250565b60006139fc60218361308c565b9150613a07826139a0565b604082019050919050565b60006020820190508181036000830152613a2b816139ef565b9050919050565b7f4552433732313a20617070726f76652063616c6c6572206973206e6f74206f7760008201527f6e6572206e6f7220617070726f76656420666f7220616c6c0000000000000000602082015250565b6000613a8e60388361308c565b9150613a9982613a32565b604082019050919050565b60006020820190508181036000830152613abd81613a81565b9050919050565b600081905092915050565b6000613ada82613081565b613ae48185613ac4565b9350613af481856020860161309d565b80840191505092915050565b6000613b0c8284613acf565b915081905092915050565b7f54686973206c696e6b20697320616c7265616479206d696e7465640000000000600082015250565b6000613b4d601b8361308c565b9150613b5882613b17565b602082019050919050565b60006020820190508181036000830152613b7c81613b40565b9050919050565b7f5468697320677261647561746520616c7265616479206861732061204469706c60008201527f6f6d610000000000000000000000000000000000000000000000000000000000602082015250565b6000613bdf60238361308c565b9150613bea82613b83565b604082019050919050565b60006020820190508181036000830152613c0e81613bd2565b9050919050565b7f546869732061646472657373206973206e6f7420612073747564656e74000000600082015250565b6000613c4b601d8361308c565b9150613c5682613c15565b602082019050919050565b60006020820190508181036000830152613c7a81613c3e565b9050919050565b7f5472616e73666572206166746572206d696e742069732070726f68696269746560008201527f6400000000000000000000000000000000000000000000000000000000000000602082015250565b6000613cdd60218361308c565b9150613ce882613c81565b604082019050919050565b60006020820190508181036000830152613d0c81613cd0565b9050919050565b7f416363657373436f6e74726f6c3a2063616e206f6e6c792072656e6f756e636560008201527f20726f6c657320666f722073656c660000000000000000000000000000000000602082015250565b6000613d6f602f8361308c565b9150613d7a82613d13565b604082019050919050565b60006020820190508181036000830152613d9e81613d62565b9050919050565b7f4552433732313a206f776e657220717565727920666f72206e6f6e657869737460008201527f656e7420746f6b656e0000000000000000000000000000000000000000000000602082015250565b6000613e0160298361308c565b9150613e0c82613da5565b604082019050919050565b60006020820190508181036000830152613e3081613df4565b9050919050565b7f4552433732313a2062616c616e636520717565727920666f7220746865207a6560008201527f726f206164647265737300000000000000000000000000000000000000000000602082015250565b6000613e93602a8361308c565b9150613e9e82613e37565b604082019050919050565b60006020820190508181036000830152613ec281613e86565b9050919050565b7f4552433732314d657461646174613a2055524920717565727920666f72206e6f60008201527f6e6578697374656e7420746f6b656e0000000000000000000000000000000000602082015250565b6000613f25602f8361308c565b9150613f3082613ec9565b604082019050919050565b60006020820190508181036000830152613f5481613f18565b9050919050565b6000613f678285613acf565b9150613f738284613acf565b91508190509392505050565b7f416363657373436f6e74726f6c3a206163636f756e7420000000000000000000600082015250565b6000613fb5601783613ac4565b9150613fc082613f7f565b601782019050919050565b7f206973206d697373696e6720726f6c6520000000000000000000000000000000600082015250565b6000614001601183613ac4565b915061400c82613fcb565b601182019050919050565b600061402282613fa8565b915061402e8285613acf565b915061403982613ff4565b91506140458284613acf565b91508190509392505050565b7f4552433732313a206d696e7420746f20746865207a65726f2061646472657373600082015250565b600061408760208361308c565b915061409282614051565b602082019050919050565b600060208201905081810360008301526140b68161407a565b9050919050565b7f4552433732313a20746f6b656e20616c7265616479206d696e74656400000000600082015250565b60006140f3601c8361308c565b91506140fe826140bd565b602082019050919050565b60006020820190508181036000830152614122816140e6565b9050919050565b7f4e487b7100000000000000000000000000000000000000000000000000000000600052601160045260246000fd5b60006141638261313c565b915061416e8361313c565b9250827fffffffffffffffffffffffffffffffffffffffffffffffffffffffffffffffff038211156141a3576141a2614129565b5b828201905092915050565b7f4552433732313a207472616e736665722063616c6c6572206973206e6f74206f60008201527f776e6572206e6f7220617070726f766564000000000000000000000000000000602082015250565b600061420a60318361308c565b9150614215826141ae565b604082019050919050565b60006020820190508181036000830152614239816141fd565b9050919050565b7f4552433732313a20617070726f766520746f2063616c6c657200000000000000600082015250565b600061427660198361308c565b915061428182614240565b602082019050919050565b600060208201905081810360008301526142a581614269565b9050919050565b60006142b78261313c565b91507fffffffffffffffffffffffffffffffffffffffffffffffffffffffffffffffff8214156142ea576142e9614129565b5b600182019050919050565b7f4e487b7100000000000000000000000000000000000000000000000000000000600052601260045260246000fd5b600061432f8261313c565b915061433a8361313c565b92508261434a576143496142f5565b5b828204905092915050565b60006143608261313c565b915061436b8361313c565b92508282101561437e5761437d614129565b5b828203905092915050565b60006143948261313c565b915061439f8361313c565b9250826143af576143ae6142f5565b5b828206905092915050565b7f4e487b7100000000000000000000000000000000000000000000000000000000600052603260045260246000fd5b60006143f48261313c565b91506143ff8361313c565b9250817fffffffffffffffffffffffffffffffffffffffffffffffffffffffffffffffff048311821515161561443857614437614129565b5b828202905092915050565b600061444e8261313c565b9150600082141561446257614461614129565b5b600182039050919050565b7f537472696e67733a20686578206c656e67746820696e73756666696369656e74600082015250565b60006144a360208361308c565b91506144ae8261446d565b602082019050919050565b600060208201905081810360008301526144d281614496565b9050919050565b7f4552433732313a206f70657261746f7220717565727920666f72206e6f6e657860008201527f697374656e7420746f6b656e0000000000000000000000000000000000000000602082015250565b6000614535602c8361308c565b9150614540826144d9565b604082019050919050565b6000602082019050818103600083015261456481614528565b9050919050565b7f4552433732313a207472616e73666572206f6620746f6b656e2074686174206960008201527f73206e6f74206f776e0000000000000000000000000000000000000000000000602082015250565b60006145c760298361308c565b91506145d28261456b565b604082019050919050565b600060208201905081810360008301526145f6816145ba565b9050919050565b7f4552433732313a207472616e7366657220746f20746865207a65726f2061646460008201527f7265737300000000000000000000000000000000000000000000000000000000602082015250565b600061465960248361308c565b9150614664826145fd565b604082019050919050565b600060208201905081810360008301526146888161464c565b9050919050565b7f4552433732313a207472616e7366657220746f206e6f6e20455243373231526560008201527f63656976657220696d706c656d656e7465720000000000000000000000000000602082015250565b60006146eb60328361308c565b91506146f68261468f565b604082019050919050565b6000602082019050818103600083015261471a816146de565b9050919050565b7f4e487b7100000000000000000000000000000000000000000000000000000000600052603160045260246000fd5b600081519050919050565b600082825260208201905092915050565b600061477782614750565b614781818561475b565b935061479181856020860161309d565b61479a816130d0565b840191505092915050565b60006080820190506147ba60008301876131d1565b6147c760208301866131d1565b6147d46040830185613545565b81810360608301526147e6818461476c565b905095945050505050565b60008151905061480081612ff2565b92915050565b60006020828403121561481c5761481b612fbc565b5b600061482a848285016147f1565b9150509291505056fea2646970667358221220d3be933b804fdc154e3e57d97e93b88daf352a47db74de0615d23219dac0def464736f6c634300080a0033",
  "immutableReferences": {},
  "source": "pragma solidity ^0.8.10;\r\n\r\nimport \"@openzeppelin/contracts/token/ERC721/ERC721.sol\";\r\nimport \"./Roles.sol\";\r\n\r\ncontract Diploma is ERC721, Roles {\r\n\r\n    //Mapping owner to the tokenID\r\n    mapping(address => uint256) _hasCertificate;\r\n    //Mapping tokenID to the owner is defined in ERC721.sol as ownerOf\r\n    //is Diploma link exist\r\n    mapping(string => bool) _diplomaExist;\r\n    //List of Diploma Links\r\n    string[] _diplomaLinks;\r\n\r\n    constructor() ERC721(\"Diploma\", \"DPLM\"){\r\n        _setupRole(DEFAULT_ADMIN_ROLE, msg.sender);\r\n        _setupRole(RECTOR_ROLE, msg.sender);\r\n    }\r\n\r\n    function mint(string memory _diplomaLink, address graduatedAddress) public onlyRole(RECTOR_ROLE){\r\n        require(!_diplomaExist[_diplomaLink], \"This link is already minted\");\r\n        require(_hasCertificate[graduatedAddress] == 0, \"This graduate already has a Diploma\");\r\n        require(hasRole(STUDENT_ROLE, graduatedAddress), \"This address is not a student\");\r\n        revokeRole(STUDENT_ROLE, graduatedAddress);\r\n        grantRole(GRADUATED_ROLE, graduatedAddress);\r\n        //diplomaLinks - add\r\n        _diplomaLinks.push(_diplomaLink);\r\n        uint _id = _diplomaLinks.length; //tokenID's start from 1 because default uint256 value is 0\r\n        //Call mint of ERC721\r\n        _mint(graduatedAddress, _id);\r\n        //Trace it\r\n        _diplomaExist[_diplomaLink] = true;\r\n        _hasCertificate[graduatedAddress] = _id;\r\n    }\r\n    function getDiplomaLinks() public view returns(string[] memory diplomaLinks){\r\n        return _diplomaLinks;\r\n    }\r\n\r\n    //TODO Contract Owner can make mistakes when minting. Token should be somewhat editable for contract owner\r\n    function transferFrom(//Only callable when minted\r\n        address from,\r\n        address to,\r\n        uint256 tokenId\r\n    ) public virtual override {\r\n        require(msg.sender == 0x0000000000000000000000000000000000000000, \"Transfer after mint is prohibited\");\r\n        super.transferFrom(from,to,tokenId);\r\n    }\r\n    function safeTransferFrom(//Only callable when minted\r\n        address from,\r\n        address to,\r\n        uint256 tokenId\r\n    ) public virtual override {\r\n        require(msg.sender == 0x0000000000000000000000000000000000000000, \"Transfer after mint is prohibited\");\r\n        super.safeTransferFrom(from,to,tokenId);\r\n    }\r\n    function safeTransferFrom(//Only callable when minted\r\n        address from,\r\n        address to,\r\n        uint256 tokenId,\r\n        bytes memory _data\r\n    ) public virtual override {\r\n        require(msg.sender == 0x0000000000000000000000000000000000000000, \"Transfer after mint is prohibited\");\r\n        super.safeTransferFrom(from, to, tokenId, _data);\r\n    }\r\n    function supportsInterface(bytes4 interfaceId) public view virtual override(ERC721, AccessControlEnumerable) returns (bool) {\r\n        return super.supportsInterface(interfaceId);\r\n    }\r\n\r\n}\r\n",
  "sourcePath": "C:\\Users\\asus\\Desktop\\Dersler\\CMPE492\\certification-project\\contracts\\Diploma.sol",
  "compiler": {
    "name": "solc",
    "version": "0.8.10+commit.fc410830.Emscripten.clang"
  },
  "schemaVersion": "3.4.4",
  "updatedAt": "2022-01-13T19:34:57.569Z",
  "networkType": "ethereum",
  "devdoc": {
    "kind": "dev",
    "methods": {
      "approve(address,uint256)": {
        "details": "See {IERC721-approve}."
      },
      "balanceOf(address)": {
        "details": "See {IERC721-balanceOf}."
      },
      "getApproved(uint256)": {
        "details": "See {IERC721-getApproved}."
      },
      "getRoleAdmin(bytes32)": {
        "details": "Returns the admin role that controls `role`. See {grantRole} and {revokeRole}. To change a role's admin, use {_setRoleAdmin}."
      },
      "getRoleMember(bytes32,uint256)": {
        "details": "Returns one of the accounts that have `role`. `index` must be a value between 0 and {getRoleMemberCount}, non-inclusive. Role bearers are not sorted in any particular way, and their ordering may change at any point. WARNING: When using {getRoleMember} and {getRoleMemberCount}, make sure you perform all queries on the same block. See the following https://forum.openzeppelin.com/t/iterating-over-elements-on-enumerableset-in-openzeppelin-contracts/2296[forum post] for more information."
      },
      "getRoleMemberCount(bytes32)": {
        "details": "Returns the number of accounts that have `role`. Can be used together with {getRoleMember} to enumerate all bearers of a role."
      },
      "grantRole(bytes32,address)": {
        "details": "Grants `role` to `account`. If `account` had not been already granted `role`, emits a {RoleGranted} event. Requirements: - the caller must have ``role``'s admin role."
      },
      "hasRole(bytes32,address)": {
        "details": "Returns `true` if `account` has been granted `role`."
      },
      "isApprovedForAll(address,address)": {
        "details": "See {IERC721-isApprovedForAll}."
      },
      "name()": {
        "details": "See {IERC721Metadata-name}."
      },
      "ownerOf(uint256)": {
        "details": "See {IERC721-ownerOf}."
      },
      "renounceRole(bytes32,address)": {
        "details": "Revokes `role` from the calling account. Roles are often managed via {grantRole} and {revokeRole}: this function's purpose is to provide a mechanism for accounts to lose their privileges if they are compromised (such as when a trusted device is misplaced). If the calling account had been revoked `role`, emits a {RoleRevoked} event. Requirements: - the caller must be `account`."
      },
      "revokeRole(bytes32,address)": {
        "details": "Revokes `role` from `account`. If `account` had been granted `role`, emits a {RoleRevoked} event. Requirements: - the caller must have ``role``'s admin role."
      },
      "safeTransferFrom(address,address,uint256)": {
        "details": "See {IERC721-safeTransferFrom}."
      },
      "safeTransferFrom(address,address,uint256,bytes)": {
        "details": "See {IERC721-safeTransferFrom}."
      },
      "setApprovalForAll(address,bool)": {
        "details": "See {IERC721-setApprovalForAll}."
      },
      "symbol()": {
        "details": "See {IERC721Metadata-symbol}."
      },
      "tokenURI(uint256)": {
        "details": "See {IERC721Metadata-tokenURI}."
      },
      "transferFrom(address,address,uint256)": {
        "details": "See {IERC721-transferFrom}."
      }
    },
    "version": 1
  },
  "userdoc": {
    "kind": "user",
    "methods": {},
    "version": 1
  }
}